:020000040000FA
:10000000080B00202D370000752300007723000027
:1000100000000000000000000000000000000000E0
:100020000000000000000000000000007B23000032
:1000300000000000000000007D2300007F2300007E
:1000400081230000832300009D23000085230000FE
:1000500087230000892300008B23000085220000F5
:10006000EF2200008D230000A1230000A723000041
:100070009F2300009B230000A32300009723000080
:1000800099230000A9230000AF230000AD23000046
:100090003B2300008F2300009123000093230000E6
:1000A00095230000A5230000AB230000B12300002E
:1000B000B32300004337000043370000B52300009E
:1000C00000F002F800F0BDF80CA030C80838241881
:1000D0002D18A246671EAB4654465D46AC4201D180
:1000E00000F0AFF87E460F3E0FCCB64601263342F5
:1000F00000D0FB1AA246AB46334318470C7A0000E7
:100100002C7A0000103A02D378C878C1FAD8520786
:1001100001D330C830C101D504680C6070470000BD
:100120000023002400250026103A01D378C1FBD813
:10013000520700D330C100D50B60704710B56E294F
:1001400002D106F031FB10BD702902D106F073FC1C
:1001500010BD662902D107F063FC10BD652902D1EC
:1001600007F05EFC10BD672902D107F059FC10BDF5
:10017000612902D1C046C04610BD03681B0A01D3E5
:1001800080231943692902D106F0D8FA10BD6429E9
:1001900002D106F0D3FA10BD752902D106F0CEFACD
:1001A00010BD6F2902D106F0F1FB10BD782902D1F4
:1001B00006F02EFC10BDE92902D106F08DFB10BD22
:1001C000E42902D106F088FB10BDF52902D106F022
:1001D00083FB10BDEF2902D106F0E4FB10BDF82926
:1001E00002D106F023FC10BD0368DB0901D3802394
:1001F0001943632902D106F09CFF10BD732902D177
:1002000006F09FFF10BDE32902D106F0A9FF10BD43
:10021000F32902D106F0ACFF10BD002010BD1FB5C0
:1002200007F006F804000020002107F0E3FB401C63
:1002300060600020002107F0C7FBE0601FBD10B523
:1002400010BD06F0CDFF1146FFF7E9FF00F041FBBE
:1002500007F062FB03B4FFF7F2FF03BC07F068FB93
:1002600070B505460C46164602E00FCC0FC5103E91
:10027000102EFAD2082E02D303CC03C5083E042E5A
:1002800007D301CC01C5361F03E021782970641C17
:100290006D1C761EF9D270BD70B504460D46012C5A
:1002A0005CD10021052001F096FE0021022001F022
:1002B00092FE0021032001F08EFE00211D2001F09E
:1002C0008AFE00211E2001F086FE00211F2001F081
:1002D00082FE0021202001F07EFE0021212001F07D
:1002E0007AFE0021222001F076FE0021232001F079
:1002F00072FE0021242001F06EFE0021252001F075
:100300006AFE0021262001F066FE0021272001F070
:1003100062FE0021282001F05EFE0021292001F06C
:100320005AFE00212A2001F056FE00212B2001F068
:1003300052FE00212C2001F04EFE00211B2001F076
:100340004AFE00211C2001F046FE0021062001F09B
:1003500042FE0021042001F03EFE5DE0022C5BD154
:100360000221052001F037FE0221084601F033FE8C
:100370000221032001F02FFE02211D2001F02BFE9F
:1003800002211E2001F027FE02211F2001F023FE82
:100390000221202001F01FFE0221212001F01BFE7E
:1003A0000221222001F017FE0221232001F013FE7A
:1003B0000221242001F00FFE0221252001F00BFE76
:1003C0000221262001F007FE0221272001F003FE72
:1003D0000221282001F0FFFD0221292001F0FBFD70
:1003E00002212A2001F0F7FD02212B2001F0F3FD6C
:1003F00002212C2001F0EFFD02211B2001F0EBFD7A
:1004000002211C2001F0E7FD0221062001F0E3FD9E
:100410000221042001F0DFFD70BD0020F8490870C2
:10042000F84908704870F8490870F8490870487031
:100430008870C870704710B541E0F5480078002812
:1004400000DD3DE00121FF2001F0C5FDF14800780D
:10045000012818D1F0480078401CEF490870084680
:100460000078022802D10120EC490870EA4800789F
:100470001E2805DB0120EA4908700020E6490870C3
:100480000020E4490870E5480078012808D1682078
:1004900002F08CFA782002F089FA0020DF49087017
:1004A000DF48007801280AD10021FF2001F093FDE8
:1004B0000020DB4908700120D549087000E0BCE746
:1004C00000BF10BD10B5FFF7A8FF1FE0D5480078AA
:1004D000012809D10020D3490870D3480078401C76
:1004E000D149087001F07DFECF480078052805DB72
:1004F0000020CD490870782002F03BF9CB48007805
:10050000192803D10220C249087000E0DEE700BFCD
:1005100010BD70B504460025012C20D102211F20FA
:1005200001F059FD0221202001F055FD0221232078
:1005300001F051FD0221242001F04DFD0221252072
:1005400001F049FD0221262001F045FD022129206C
:1005500001F041FD02212A2001F03DFD22E1022CA3
:1005600040D102211F2001F036FD0221202001F0A0
:1005700032FD0221232001F02EFD0221242001F072
:100580002AFD0221252001F026FD0221262001F06E
:1005900022FD0221292001F01EFD02212A2001F066
:1005A0001AFD02211D2001F016FD02211E2001F07E
:1005B00012FD0221212001F00EFD0221222001F076
:1005C0000AFD0221272001F006FD0221282001F06A
:1005D00002FD02212B2001F0FEFC02212C2001F063
:1005E000FAFCDFE0032C50D102211F2001F0F3FCC4
:1005F0000221202001F0EFFC0221232001F0EBFC7E
:100600000221242001F0E7FC0221252001F0E3FC77
:100610000221262001F0DFFC0221292001F0DBFC71
:1006200002212A2001F0D7FC02211D2001F0D3FC79
:1006300002211E2001F0CFFC0221212001F0CBFC81
:100640000221222001F0C7FC0221272001F0C3FC77
:100650000221282001F0BFFC02212B2001F0BBFC6D
:1006600002212C2001F0B7FC0221084601F0B3FC66
:100670000221032001F0AFFC0221062001F0ABFCB7
:100680000221042001F0A7FC8CE0042C7ED1022181
:100690001F2001F0A0FC0221202001F09CFC02217F
:1006A000232001F098FC0221242001F094FC022177
:1006B000252001F090FC0221262001F08CFC022173
:1006C000292001F088FC02212A2001F084FC02216B
:1006D0001D2001F080FC02211E2001F07CFC022183
:1006E000212001F078FC0221222001F074FC02217B
:1006F000272001F070FC0221282001F06CFC02216F
:100700002B2001F068FC02212C2001F064FC022166
:10071000084601F060FC0221032001F05CFC02218C
:10072000062001F058FC0221042001F054FC0221B3
:10073000052001F050FC0221072001F04CFC0221B1
:10074000082001F048FC0221112001F044FC0221A4
:10075000122001F040FC0221132001F03CFC022198
:10076000142001F038FC0221152001F034FC022194
:10077000162001F030FC0221172001F02CFC022190
:10078000182001F028FC0221192000E006E001F009
:1007900022FC02211A2001F01EFC03E0052C01D1ED
:1007A00000240125284670BD10B5002446E01D48F0
:1007B0000078012806D101F014FD1D480078FFF7EC
:1007C000A8FE04461B480078012807D100201949DB
:1007D000087019480078401C1749087016480078BE
:1007E000052807D100201449087011480078401CE2
:1007F0000F490870012C21D100200D4908701EE01E
:10080000550000205600002058000020590000200C
:1008100040000020410000200000002001000020D6
:100820000200002044000020030000204C000020B3
:10083000080000204300002007000020B7E700BFA9
:1008400044E02948007801280BD10020264908708F
:1008500026480078401C2549087001F0C2FC02F0CF
:1008600046FF22480078052808DB00201F49087051
:10087000782001F07EFF682001F07BFF1C480078A3
:10088000012810D100201A4908701A480078401C2D
:100890001849087018480078012802D117490870D3
:1008A00015E001F038FE13480078012803D100203C
:1008B00002F068FA0AE00F480078022803D101200C
:1008C00002F060FA02E000200A490870B9E700BFB0
:1008D00010BD00F0E1F905E0FFF7ADFDFFF7F2FD17
:1008E000FFF762FFF8E70000440000200500002049
:1008F00043000020060000204C00002040000020A3
:1009000010B5002819DAEF4A03071B0F083B9B08B4
:100910009B00D2588307DC0EFF23A3409A438B072A
:100920001B0E8407E40EA3401A43E64B0407240F72
:10093000083CA408A4001A5118E0E34A03231B0250
:10094000D21883089B00D2588307DC0EFF23A340F4
:100950009A438B071B0E8407E40EA3401A43DA4B1D
:10096000032424021B198408A4001A5110BD1CB5CD
:1009700000200190D548806880218843D349886051
:10098000082002F0E4FFD148006870218843D04974
:100990000843CE4908600846406804218843CD4991
:1009A0000843CA494860CC48086200BFC748006A8B
:1009B000C00FC00700900198401C01900198401C96
:1009C000002804D00121C90700988842EED101987F
:1009D000401C002802D0C148BC490862BB4840689E
:1009E00080088000BB490843C01CB8494860BC4827
:1009F000BC490860BC490860BC48B4494031086142
:100A0000BB484861BB488861B948C861B9480862B9
:100A10001CBD01208007806A3F2109020843012193
:100A2000890788620846006B3F21090208430121BB
:100A30008907086300BF1520AF4908635120086388
:100A400000BF8007806A89150843890588620846C7
:100A5000006B8915084389050863A848A849086000
:100A6000002048608860C860086188628804806AE5
:100A700049150843490588620846006B4915084333
:100A8000490508639F48A0490860002048609F48C6
:100A900088600020C860086188628805806A09153E
:100AA0000843090588620846006B091508430905D3
:100AB0000863974897490860002048608860C860CC
:100AC000086188624805806AC9140843C9048862BD
:100AD0000846006BC9140843C90408630A208E49FC
:100AE000086003204860112088600020C86005204D
:100AF00008610020886201208007806A8914084309
:100B0000890488620846006B8914084389040863D5
:100B1000824883490860002048608860C860086196
:100B200088620805806A49140843490488620846B7
:100B3000006B4914084349040863081479490860A4
:100B4000002048608860C8600861886200BF6A4908
:100B5000086300BF704710B5734800210160416011
:100B60008160C1604B20C0016F490860032008719B
:100B700000204871887188600A20C88188816B488C
:100B800004F0A5FA01221146684804F029FA03216D
:100B90001420FFF7B5FE142000F08DF810BD10B53D
:100BA00001208007C06A102108438906C8620846F0
:100BB000406B10210843890648635D495D4803F096
:100BC00032FD5C4800680C2108435A490860002245
:100BD0001146584804F030F900221146554804F0F7
:100BE0002BF910BD1FB5012003F00AF90020009079
:100BF00001900290039001216846817164218181F6
:100C00004D490181012101716A4600214B4805F0DF
:100C1000C3F901220021494805F0C4FB0321072044
:100C2000FFF76EFE072000F046F8444805F06EFB23
:100C30000121424805F099FB404805F088FB1FBDA3
:100C40001FB5012003F0DCF8002000900190029015
:100C5000039001216846817181813749018100211A
:100C600001716A46364805F097F90122002134489F
:100C700005F098FB03210820FFF742FE082000F052
:100C80001AF82F4805F042FB01212D4805F06DFBB5
:100C90002B4805F05CFB1FBD10B5FFF768FEFFF7A2
:100CA000B8FEFFF79FFFFFF7CBFFFFF754FFFFF7FB
:100CB00076FF62B610BDC206D20E01219140024AF3
:100CC000116070471CED00E000E100E040000040D2
:100CD000100007A500000A570017C7000017E7001B
:100CE000006CDC02780000207C000020010301027F
:100CF0000102010201000100C01F00400050150068
:100D00000010004095AA5555001100400010221116
:100D100055551500001200400013004055550000C5
:100D20000014004000150040680100200041004010
:100D3000400D03000048004080BB0000002100403F
:100D40000022004010B5144602462F3A130006F068
:100D50000EFE0805192D41556B8195A9012903D077
:100D6000032901D0022906D1FA4AD26920231A4365
:100D7000F84BDA6105E0F74A126A20231A43F54B73
:100D80001A6290E0012903D0032901D0022906D17B
:100D9000F04AD26910231A43EE4BDA6105E0ED4ABE
:100DA000126A10231A43EB4B1A627CE0012903D02C
:100DB000032901D0022906D1E64AD26908231A4341
:100DC000E44BDA6105E0E34A126A08231A43E14B77
:100DD0001A6268E0012903D0032901D0022906D153
:100DE000DC4AD26904231A43DA4BDA6105E0D94AB6
:100DF000126A04231A43D74B1A6254E0012903D024
:100E0000032901D0022907D1D24AD26901235B020A
:100E10001A43D04BDA6106E0CE4A126A01235B0224
:100E20001A43CC4B1A623EE0012903D0032901D0BA
:100E3000022907D1C74AD269FF2301331A43C54BA0
:100E4000DA6106E0C34A126AFF2301331A43C14B39
:100E50001A6228E0012903D0032901D0022906D112
:100E6000BC4AD26980231A43BA4BDA6105E0B94A19
:100E7000126A80231A43B74B1A6214E0012903D087
:100E8000032901D0022906D1B24AD26940231A436C
:100E9000B04BDA6105E0AF4A126A40231A43AD4B0A
:100EA0001A6200E000BF00BF10BD70B506460C46D8
:100EB000154630461138030006F059FD0A06203A5F
:100EC000546E88A2BCD6F2F0012C03D0032C01D0C2
:100ED000022C0BD1E807C00F00280ED09D48C06936
:100EE0000121890208439B49C86106E09948006ACC
:100EF00001218902084397490862F1E0012C03D0DF
:100F0000032C01D0022C0BD1E807C00F00280ED013
:100F10009048C0690121890208438E49C86106E0F2
:100F20008C48006A0121890208438A490862D7E097
:100F3000012C03D0032C01D0022C0BD1022028401D
:100F400000280ED08348C0690121890208438149E5
:100F5000C86106E07F48006A0121890208437D4993
:100F60000862BDE0012C03D0032C01D0022C0BD170
:100F70000220284000280ED07648C069012189024D
:100F800008437449C86106E07248006A0121890279
:100F9000084370490862A3E0012C03D0032C01D060
:100FA000022C0BD10420284000280ED06948C069CB
:100FB0000121890208436749C86106E06548006A63
:100FC0000121890208436349086289E0012C03D0AA
:100FD000032C01D0022C0BD10420284000280ED075
:100FE0005C48C0690121890208435A49C86106E08A
:100FF0005848006A012189020843564908626FE097
:10100000012C03D0032C01D0022C0BD10820284046
:1010100000280ED04F48C0690121890208434D497C
:10102000C86106E04B48006A01218902084349492A
:10103000086255E0012C03D0032C01D0022C0BD107
:101040000820284000280ED04248C06901218902AA
:1010500008434049C86106E03E48006A0121890210
:1010600008433C4908623BE0012C03D0032C01D02B
:10107000022C0BD11020284000280ED03548C06922
:101080000121890208433349C86106E03148006AFA
:101090000121890208432F49086221E01AE0FFE795
:1010A000012C03D0032C01D0022C0BD1102028409E
:1010B00000280ED02748C06901218902084325492C
:1010C000C86106E02348006A0121890208432149DA
:1010D000086205E02A4621463046FFF733FE00BF8E
:1010E00000BF70BD70B506460C461546F01F0300E4
:1010F00006F03DFC068870041E3C56A0012C03D06F
:10110000032C01D0022C0BD18020284000280ED0C7
:101110001148C0690121090308430F49C86106E06D
:101120000D48006A0121090308430B49086287E062
:10113000012C03D0032C01D0022C0FD18020284099
:10114000002812D00448C06901214903084302491C
:10115000C8610AE00012004000110040FD48006A2A
:10116000012149030843FB49086269E0012C03D0CF
:10117000032C01D0022C0BD18020284000280ED057
:10118000F448C069012189030843F249C86106E0B7
:10119000F048006A012189030843EE4908624FE0E4
:1011A000012C03D0032C01D0022C0BD1802028402D
:1011B00000280ED0E748C0690121C9030843E5496A
:1011C000C86106E0E348006A0121C9030843E14918
:1011D000086235E0012C03D0032C01D0022C0AD187
:1011E0008020284000280CD0DB48C069012108433A
:1011F000D949C86105E0D848006A01210843D649A9
:1012000008621DE0012C03D0032C01D0022C0AD16E
:101210008020284000280CD0CF48C0690221084314
:10122000CD49C86105E0CC48006A02210843CA499B
:10123000086205E02A4621463046FFF736FE00BF29
:1012400000BF70BD70B506460C461546272E56D019
:1012500006DC042E7AD0062E79D01C2E78D106E03A
:10126000282E76D02B2E75D02C2EF7D116E1012CFE
:1012700010D1E807C00F002840D0B648C069A102CD
:101280000843B449C8610846C069C9140843B14954
:10129000C86133E0032C11D1E807C00F00282DD01E
:1012A000AC48C069012189020843AA49C8610846BF
:1012B000006AC9140843A74908621FE0022C10D134
:1012C000E807C00F002819D0A248006A610208434D
:1012D000A04908620846C069C91408439D49C8610D
:1012E0000CE09C48006A0121890208439949086280
:1012F0000846006AC914084396490862B1E1012C06
:1013000010D102202840002845D09248C069A1028F
:1013100008439049C8610846C069C91408438D490B
:10132000C86138E0032C16D102202840002832D0B2
:101330008848C0690121890208438649C861084676
:10134000006AC91408438349086224E03BE1EDE0E8
:1013500081E121E05AE0022C10D10220284000282F
:1013600019D07C48006A610208437A49086208463D
:10137000C069C91408437749C8610CE07548006A20
:10138000012189020843734908620846006AC914AA
:1013900008437049086264E1012C10D10420284000
:1013A000002832D06B48C069A10208436949C8616E
:1013B0000846C069C91408436649C86125E0032C82
:1013C00011D10420284000281FD06248C0690121A3
:1013D000890208435F49C8610846006AC914084386
:1013E0005C49086211E0022C0FD10420284000283B
:1013F0000BD05848006A6102084356490862084603
:10140000C069C91408435349C8612AE1012C10D1AD
:1014100008202840002840D04E48C069A102084357
:101420004C49C8610846C069C91408434949C861A4
:1014300033E0032C11D10820284000282DD0454846
:10144000C0690121890208434249C8610846006A0F
:10145000C91408433F4908621FE0022C10D108203C
:101460002840002819D03B48006A610208433949E6
:1014700008620846C069C91408433649C8610CE0CF
:101480003448006A0121890208433249086208464B
:10149000006AC91408432F490862E2E0012C10D108
:1014A00010202840002840D02A48C069A1020843E3
:1014B0002849C8610846C069C91408432549C8615C
:1014C00033E0032C11D11020284000282DD02148D2
:1014D000C0690121890208431E49C8610846006AA3
:1014E000C91408431B4908621FE0022C10D11020C8
:1014F0002840002819D01748006A6102084315499E
:1015000008620846C069C91408431249C8610CE062
:101510001048006A0121890208430E490862084602
:10152000006AC91408430B4908629AE0012C15D1DE
:1015300020202840002845D00648C069A102084361
:101540000449C8610846C069C91408430149C86113
:1015500038E000000011004000120040032C11D1BF
:101560002020284000282DD0FD48C0690121890293
:101570000843FB49C8610846006AC9140843F84992
:1015800008621FE0022C10D120202840002819D02A
:10159000F348006A61020843F14908620846C069DD
:1015A000C9140843EE49C8610CE0ED48006A012106
:1015B00089020843EA4908620846006AC9140843D8
:1015C000E74908624DE0012C10D140202840002856
:1015D00040D0E348C069A1020843E149C861084618
:1015E000C069C9140843DE49C86133E0032C11D136
:1015F0004020284000282DD0D948C0690121890207
:101600000843D749C8610846006AC9140843D44949
:1016100008621FE0022C10D140202840002819D079
:10162000CF48006A61020843CD4908620846C06994
:10163000C9140843CA49C8610CE0C948006A0121BD
:1016400089020843C64908620846006AC91408436B
:10165000C349086205E02A4621463046FFF742FDAD
:1016600000BF00BF70BD70B506460C46154630463B
:101670001F38030006F07BF90C074FF6F697DFF5ED
:10168000F4F6F6F3F2F6012C10D1E807C00F0028AB
:1016900040D0B348C06921020843B149C861084637
:1016A000C06904210843AE49C86133E0032C11D15D
:1016B000E807C00F00282DD0A948006AFF2101319A
:1016C0000843A74908620846C06904210843A449A1
:1016D000C8611FE0022C10D1E807C00F002819D004
:1016E0009F48C069E10108439D49C8610846006AF6
:1016F000042108439A4908620CE09948006AFF21D6
:1017000001310843964908620846006A04210843EB
:101710009349086204E2012C10D1022028400028DD
:1017200040D08F48C069210208438D49C8610846EE
:10173000C069042108438A49C86133E0032C11D1F0
:101740000220284000282DD08548006AFF21013161
:101750000843834908620846C06904210843804958
:10176000C8611FE0022C10D102202840002819D0A7
:101770007B48C069E10108437949C8610846006AAD
:1017800004210843764908620CE07548006AFF218D
:1017900001310843724908620846006A042108437F
:1017A0006F490862BCE1012C10D1042028400028B8
:1017B00040D06B48C069210208436949C8610846A6
:1017C000C069042108436649C86133E0032C11D184
:1017D0000420284000282DD06148006AFF210131F3
:1017E00008435F4908620846C069042108435C4910
:1017F000C8611FE0022C10D104202840002819D015
:101800005748C069E10108435549C8610846006A64
:1018100004210843524908620CE05148006AFF2144
:10182000013108434E4908620846006A0421084312
:101830004B49086274E1012C15D10820284000288A
:1018400045D04748C069210208434549C861084658
:10185000C069042108434249C86138E012E1C9E087
:1018600080E035E056E1032C11D108202840002803
:101870002DD03B48006AFF210131084338490862F6
:101880000846C069042108433549C8611FE0022C9D
:1018900010D108202840002819D03148C069E10142
:1018A00008432F49C8610846006A042108432C49AF
:1018B00008620CE02A48006AFF21013108432849E8
:1018C00008620846006A042108432549086227E1A6
:1018D000012C10D110202840002840D02048C06999
:1018E000210208431E49C8610846C0690421084313
:1018F0001B49C86133E0032C11D110202840002877
:101900002DD01748006AFF210131084314490862AD
:101910000846C069042108431149C8611FE0022C30
:1019200010D110202840002819D00D48C069E101CD
:1019300008430B49C8610846006A04210843084966
:1019400008620CE00648006AFF210131084304499F
:1019500008620846006A0421084301490862DFE082
:1019600000110040012C10D120202840002840D038
:10197000FE48C06921020843FC49C8610846C069A5
:1019800004210843F949C86133E0032C11D1202018
:10199000284000282DD0F548006AFF210131084376
:1019A000F24908620846C06904210843EF49C8614A
:1019B0001FE0022C10D120202840002819D0EB482D
:1019C000C069E1010843E949C8610846006A042189
:1019D0000843E64908620CE0E448006AFF2101314F
:1019E0000843E24908620846006A04210843DF49C7
:1019F000086295E0012C10D140202840002840D0FA
:101A0000DA48C06921020843D849C8610846C0695C
:101A100004210843D549C86133E0032C11D140208B
:101A2000284000282DD0D148006AFF210131084309
:101A3000CE4908620846C06904210843CB49C86101
:101A40001FE0022C10D140202840002819D0C748A0
:101A5000C069E1010843C549C8610846006A04211C
:101A60000843C24908620CE0C048006AFF21013106
:101A70000843BE4908620846006A04210843BB497E
:101A800008624DE0012C10D180202840002840D071
:101A9000B648C06921020843B449C8610846C06914
:101AA00004210843B149C86133E0032C11D18020DF
:101AB000284000282DD0AD48006AFF21013108439D
:101AC000AA4908620846C06904210843A749C861B9
:101AD0001FE0022C10D180202840002819D0A348F4
:101AE000C069E1010843A149C8610846006A0421B0
:101AF00008439E4908620CE09C48006AFF210131BE
:101B000008439A4908620846006A04210843974935
:101B1000086205E02A4621463046FFF793FB00BFE6
:101B200000BF70BD70B506460C4615461D2E7CD014
:101B300008DC022E53D0032E78D0052E09D01B2EA0
:101B400075D1FAE11E2E73D0212E72D0222EF7D13C
:101B5000ADE1012C10D1E807C00F00283ED0844829
:101B6000C069802108438249C8618048C069012159
:101B700008437E49C86131E0032C10D1E807C00F4B
:101B800000282BD07A48C069802108437849C86171
:101B90007648006A01210843744908621EE0022C5D
:101BA00010D1E807C00F002818D07148006A8021C2
:101BB00008436F4908626D48C069012108436B49B9
:101BC000C8610BE06A48006A8021084368490862DE
:101BD0006648006A0121084364490862F9E1012C62
:101BE00010D102202840002843D06148C0698021DC
:101BF00008435F49C8615D48C069012108435B49EA
:101C0000C86136E0032C15D102202840002830D0CE
:101C10005748C069802108435549C8615348006A44
:101C2000012108435149086223E069E022E0CAE14A
:101C3000B1E0F6E0022C10D102202840002818D094
:101C40004B48006A80210843494908624748C069F7
:101C5000012108434549C8610BE04548006A8021DD
:101C60000843434908624148006A012108433F494B
:101C70000862AEE1012C10D10420284000283ED09B
:101C80003B48C069802108433949C8613748C06969
:101C9000012108433549C86131E0032C10D10420EB
:101CA000284000282BD03248C069802108433049A1
:101CB000C8612E48006A012108432C4908621EE0D1
:101CC000022C10D104202840002818D02848006A8F
:101CD00080210843264908622448C069012108433D
:101CE0002249C8610BE02248006A8021084320494C
:101CF00008621E48006A012108431C49086268E125
:101D0000012C10D108202840002843D01848C06971
:101D1000802108431649C8611448C069012108435D
:101D20001249C86136E0032C10D108202840002851
:101D300030D00F48C069802108430D49C8610B4865
:101D4000006A012108430949086223E0022C15D1E9
:101D50000820284000281DD00548006A802108433B
:101D6000034908620148C069012103E000110040F5
:101D7000001000400843FB49C8610BE0FA48006AC4
:101D800080210843F8490862F648006A01210843A7
:101D9000F44908621DE1012C10D1102028400028D0
:101DA0003ED0F148C06980210843EF49C861ED4841
:101DB000C06901210843EB49C86131E0032C10D10F
:101DC0001020284000282BD0E748C0698021084314
:101DD000E549C861E348006A01210843E149086216
:101DE0001EE0022C10D110202840002818D0DE4818
:101DF000006A80210843DC490862DA48C069012191
:101E00000843D849C8610BE0D748006A80210843DD
:101E1000D5490862D348006A01210843D1490862C4
:101E2000D7E0012C10D12020284000283ED0CE48F9
:101E3000C06980210843CC49C861CA48C0690121F2
:101E40000843C849C86131E0032C10D12020284044
:101E500000282BD0C448C06980210843C249C8610A
:101E6000C048006A01210843BE4908621EE0022CF6
:101E700010D120202840002818D0BB48006A8021BB
:101E80000843B9490862B748C06901210843B54908
:101E9000C8610BE0B448006A80210843B249086277
:101EA000B048006A01210843AE49086291E0012C64
:101EB00010D14020284000283ED0AB48C069802186
:101EC0000843A949C861A748C06901210843A54939
:101ED000C86131E0032C10D14020284000282BD0CD
:101EE000A148C069802108439F49C8619D48006A94
:101EF000012108439B4908621EE0022C10D14020BA
:101F00002840002818D09848006A80210843964944
:101F100008629448C069012108439249C8610BE0F6
:101F20009148006A802108438F4908628D48006A01
:101F3000012108438B4908624BE0012C10D180201D
:101F4000284000283ED08848C0698021084386493F
:101F5000C8618448C069012108438249C86131E0F1
:101F6000032C10D18020284000282BD07E48C06947
:101F7000802108437C49C8617A48006A01210843EE
:101F8000784908621EE0022C10D1802028400028E9
:101F900018D07548006A8021084373490862714867
:101FA000C069012108436F49C8610BE06E48006AAF
:101FB000802108436C4908626A48006A012108438D
:101FC0006849086205E02A4621463046FFF74BFB88
:101FD00000BF00BF70BD70B504460D4600266348C3
:101FE0008669324629462046FFF79CFDFF2C1AD110
:101FF000012D18D15C48C069C02108435A49C86105
:102000005848C0695A4908435649C8615948C06987
:10201000594908435749C8615448C069FF210843DA
:102020005249C8611BE0FF2C19D1002D17D14E4831
:10203000006AC02108434C4908624A48006A4C497A
:102040000843484908624B48006A4B4908434949DC
:1020500008624648006AFF2108434449086270BD8F
:1020600001293DD1102824D006DC0D2809D00E28E6
:102070000FD00F2833D114E02D2822D02E282ED1B6
:1020800026E0384AD26901231B031A43354BDA6133
:1020900025E0344AD26901235B031A43314BDA61EC
:1020A0001DE0304AD26901239B031A432D4BDA61AC
:1020B00015E02C4AD2690123DB031A43294BDA616C
:1020C0000DE02C4AD26901231A432A4BDA6106E05B
:1020D000284AD26902231A43264BDA6100BF3FE047
:1020E00000293DD1102824D006DC0D2809D00E2867
:1020F0000FD00F2833D114E02D2822D02E282ED136
:1021000026E0184A126A01231B031A43154B1A6270
:1021100025E0144A126A01235B031A43114B1A6229
:102120001DE0104A126A01239B031A430D4B1A62E9
:1021300015E00C4A126A0123DB031A43094B1A62A9
:102140000DE00C4A126A01231A430A4B1A6206E098
:10215000084A126A02231A43064B1A6200BF00BFE4
:1021600070470000001100400010004000140040C3
:1021700007FF000000120040FF070000F0B5064610
:102180000D461446002728488769012C0FD1A80066
:10219000264908583840002804D001213046FFF76E
:1021A0005FFF0AE000213046FFF75AFF05E0002CF0
:1021B00003D100213046FFF753FFF0BD1C48006AF1
:1021C000802108431A4908621A48006A1A490843DC
:1021D000184908621948006A1949084317490862F2
:1021E000704700B51048006A1649096808430E494F
:1021F0000862FFF7E3FF1448017801208840114985
:1022000008600948C069096808430749C8610E4861
:102210000078401C0C49087008460078072801DD4A
:102220000020087000BD0000001400400C000020D9
:10223000001000400011004005FD000000120040A9
:10224000FF0700003800002034000020002000219B
:10225000594A9268D0B2C106C90E022911D1574A13
:102260001278092A0ADA554A1278521C534B1A700E
:10227000534A1B78D25C504B1A6002E000224F4B4D
:102280001A70704710B54F4C204604F046F80821EC
:102290000840002820D001204B4908704B490870A5
:1022A0004B480078012148404949087008460078A9
:1022B000012806D14748C069611508434549C861EE
:1022C00006E04448006A0121490208434149086286
:1022D0000821204604F026F8204604F01EF80421C8
:1022E0000840002802D0204604F01CF810BD10B5AC
:1022F000394C204604F011F808210840002811D07C
:1023000001203649087036480078401C344908706E
:1023100008460078642801DB002008700821204668
:1023200004F000F8204603F0F8FF042108400028DC
:1023300002D0204603F0F6FF10BD00B5FFF786FF80
:10234000284800780121484026490870084600784E
:10235000012807D11F48C0690121890208431D498E
:10236000C86106E01B48006A012189020843194937
:10237000086200BD704700BFFEE7704770477047B6
:102380007047704770477047704770477047704795
:102390007047704770477047704770477047704785
:1023A0007047704770477047704770477047704775
:1023B0007047704770470000004100404E00002009
:1023C0005D0100200021004043000020410000206A
:1023D0003C0000200010004000220040440000208B
:1023E000460000203D00002010B5014600200122DB
:1023F000FE4B1B78012B00D112E0FC4B5B78012BCC
:1024000001D101200CE0F94B9B78012B01D1022076
:1024100006E0F64BDB78012B01D1032000E000221F
:10242000012A76D10C46093C230005F0A0FA0A06E1
:102430000C131A21282F363D444B0023EC4C235417
:10244000EA4C23543FE00123E94C23540023E74C9A
:10245000235438E00223E64C23540023E34C235456
:1024600031E00323E24C23540023E04C23542AE0C0
:102470000423DF4C23540023DC4C235423E00523A6
:10248000DB4C23540023D94C23541CE00623D84CA6
:1024900023540023D54C235415E00723D44C235454
:1024A0000023D24C23540EE00823D14C23540023A4
:1024B000CE4C235407E00923CD4C23540023CB4CAE
:1024C000235400E000BF00BFCA4B1B78012B0DD185
:1024D000002804D1C64B1B78C54C63701AE0012854
:1024E00018D1C34B5B78C24C237013E0C14B5B78AF
:1024F000012B0FD1022805D1BD4B9B78BC4CE3705A
:1025000008E006E0032805D1B94BDB78B84CA3708E
:1025100000E0002210BD10B5B748007800280CD1AB
:10252000B6480078022809D1B54800780121484012
:10253000B34908700120B049087086E0B0480078BF
:102540000028FAD1AD48007813283CD007DC801E63
:10255000030005F00CFA050C202A16347400143818
:10256000030005F004FA053A444E62586C00A44892
:10257000007801214840A249087001209E49087056
:1025800062E0A0480078012148409E49087001207F
:102590009949087058E09C480078012148409A49C0
:1025A00008700120944908704EE098480078012195
:1025B00048409649087001208F49087044E0012086
:1025C0008D49087040E08B480078012148408949D6
:1025D000087001208849087036E08648407801215B
:1025E0004840844948700120834908702CE0042148
:1025F0007E4803F049FF01207C4908707E4908703D
:1026000022E00421794803F03FFF01207749487018
:102610007949087018E00421744803F035FF01205F
:102620007249C870744908700EE004216F4803F0C5
:102630002BFF01206D4988706F49087004E06F48D6
:102640000078FFF7D1FE00BF00BF10BD30B50446D3
:102650001D46782C47D14878002828D108780828CA
:1026600019D008DC00280FD001280ED002280ED087
:1026700004281AD10DE010280FD020280FD04028B0
:102680000FD0802811D10EE010E014250EE00625B1
:102690000CE004250AE0132508E0032506E01625D2
:1026A00004E0052502E0022500E000BF00BF087835
:1026B00000285CD14878030005F059F9090607099C
:1026C000130F1313131113000CE015250AE0022A4F
:1026D00001D1192500E0012504E0172502E01825A5
:1026E00000E000BF43E04878002828D10878082897
:1026F00019D008DC00280FD001280ED002280ED0F7
:1027000004281AD10DE010280FD020280FD040281F
:102710000FD0802811D10EE010E012250EE0112517
:102720000CE010250AE00F2508E00E2506E00D2537
:1027300004E00C2502E00B2500E000BF00BF087894
:10274000002814D14878030005F011F9090607099B
:102750000F0B0F0F0F0D0F0008E00A2506E00925EB
:1027600004E0072502E0082500E000BF00BF28467E
:1027700030BD30B599B00546402109A803F086FE6A
:10278000002400200890782D01D1012400E00024CD
:102790000195102108A801710021417109A802903A
:1027A00001200390002201A9194802F018FB3E21E4
:1027B00009A803F06BFE3D21164803F065FE019564
:1027C0001448059001200690002201A9104802F04B
:1027D00015FB0195112108A801710021417109A87B
:1027E000029001200390002201A915E04F00002073
:1027F00059000020560000204D0000204C00002011
:1028000053000020540000205500002058000020F4
:1028100000480040A0000020FE4802F0E0FA3E21FF
:1028200009A803F033FE3D21FB4803F02DFE01957E
:10283000F948059001200690002201A9F54802F010
:10284000DDFAF6480078F6490870F34800784870D9
:10285000F248017808A80170EF48017808A8417093
:10286000EE480078EF490870EB480078EE490870B0
:10287000EA480078002822D1E748007800281ED1D5
:10288000EA48007800280DD1E8484078002809D1AE
:10289000E6488078002805D1E448C078002801D1B6
:1028A000E34908706000E149085C00286CD16000D1
:1028B00040184078002867D1DE49085564E0D748C1
:1028C0000078002825D0D4480078002821D0600066
:1028D000D649085CD1490978884255D16000D3496E
:1028E00040184078CC49097888424DD1D148005DE4
:1028F000401CD04908550846005D322844DBCC48CE
:102900000378022208A92846FFF7A0FEC8490870EC
:102910003AE06000C549085CC0490978884233D173
:102920006000C24940184078BB49097888422BD1E1
:10293000C048005D401CBF4908550846005D052899
:102940000DDB0846005D322809DAB9480378012218
:1029500008A92846FFF77AFEB549087014E0B54883
:10296000005D322809DBB2480378022208A9284614
:10297000FFF76CFEAE49087006E0AE48005DFA282D
:1029800002DB0020AB490855A44800786100A74A43
:102990005054A1480078610089184870A448007814
:1029A000002801D1A449087019B030BD10B598B005
:1029B0000446402108A803F069FD01940F2108A8EE
:1029C00001703921417002903F200390002201A93B
:1029D000904802F004FA3E2108A803F057FD019444
:1029E000162108A801700021417033218170C17047
:1029F000017141718171C17103210172029009203D
:102A00000390002201A9834802F0E9F93E2108A8B9
:102A100003F03CFD0194022108A8017010214170CF
:102A2000029002200390002201A97A4802F0D7F90F
:102A30003E2108A803F02AFD0194032108A8017093
:102A400010214170029002200390002201A97148D8
:102A500002F0C5F93E2108A803F018FD01940421F5
:102A600008A80170102141700290022003900022FA
:102A700001A9684802F0B3F93E2108A803F006FD59
:102A80000194052108A801701021417002900220D4
:102A90000390002201A95F4802F0A1F93E2108A895
:102AA00003F0F4FC0194062108A801701021417084
:102AB000029002200390002201A9564802F08FF9EB
:102AC0003E2108A803F0E2FC0194072108A8017048
:102AD00010214170029002200390002201A94D486C
:102AE00002F07DF93E2108A803F0D0FC01940821F2
:102AF00008A801701021417002900220039000226A
:102B000001A9444802F06BF93E2108A803F0BEFC7D
:102B10000194092108A8017010214170029002203F
:102B20000390002201A93B4802F059F93E2108A870
:102B300003F0ACFC01940A2108A801701021417037
:102B4000029002200390002201A9324802F047F9C6
:102B50003E2108A803F09AFC01940B2108A80170FB
:102B600010214170029002200390002201A92948FF
:102B700002F035F93E2108A803F088FC01940C21ED
:102B800008A80170102141700290022003900022D9
:102B900001A9204802F023F93E2108A803F076FCA1
:102BA00001940D2108A801701021417002900220AB
:102BB0000390002201A9174802F011F93E2108A84C
:102BC00003F064FC01940E2108A8017005214170F6
:102BD000029002200390002201A90E4802F0FFF8A3
:102BE0003E2108A803F052FC0194122108A80170AC
:102BF00000214170029002200390002201A90548A3
:102C000002F0EDF83E2108A803F040FC01941321E6
:102C100008A813E000480040DF000020A0000020CA
:102C20001E0100205D0000205E0000205F000020EB
:102C30004C000020630000204D00002001700021A6
:102C40004170029002200390002201A94C4802F03A
:102C5000C6F83E2108A803F019FC0194142108A825
:102C6000017000214170029002200390002201A90E
:102C7000434802F0B4F83E2108A803F007FC019491
:102C8000152108A8017000214170029002200390D4
:102C9000002201A93A4802F0A2F83E2108A803F058
:102CA000F5FB0194292108A80170202141700290B0
:102CB00002200390002201A9314802F090F83E2141
:102CC00008A803F0E3FB01942A2108A8017043211E
:102CD0004170029002200390002201A9284802F0CE
:102CE0007EF83E2108A803F0D1FB01942B2108A80F
:102CF000017043214170029002200390002201A93B
:102D00001F4802F06CF83E2108A803F0BFFB0194B5
:102D10002C2108A801700921417002900220039023
:102D2000002201A9164802F05AF83E2108A803F033
:102D3000ADFB01945B2108A80170B02141700290A5
:102D400002200390002201A90D4802F048F83E211C
:102D500008A803F09BFB01940F2108A80170312102
:102D60004170029002200390002201A9044802F061
:102D700036F83E2108A803F089FB18B010BD00000A
:102D8000004800401349144A91600A219181D18181
:102D9000AA21104A1170002151701172BB21517289
:102DA000AA210E4A1170002151701172BB2151727B
:102DB00000280BD10A49097800290AD1114609785F
:102DC000084A11600121064A117002E00021044AFC
:102DD0001170704778010020680100205D0100201B
:102DE000670000200041004010B5FE48007801282F
:102DF00004D103210520FFF7EEF803E002210520AE
:102E0000FFF7E9F810BD10B5F7480078012804D1A4
:102E100003210220FFF7DFF803E002210846FFF755
:102E2000DAF810BD10B5F1480078012804D103216B
:102E30000846FFF7D0F803E002210320FFF7CBF8A4
:102E400010BD10B5EA480078012814D103211B20D9
:102E5000FFF7C1F803211D20FFF7BDF803211E2055
:102E6000FFF7B9F803212120FFF7B5F8032122204D
:102E7000FFF7B1F817E0DE480078002813D10221EF
:102E80001B20FFF7A8F802211D20FFF7A4F802215C
:102E90001E20FFF7A0F802212120FFF79CF8022155
:102EA0002220FFF798F8D2484078012814D1032156
:102EB0001C20FFF790F803212720FFF78CF803214F
:102EC0002820FFF788F803212B20FFF784F803213F
:102ED0002C20FFF780F817E0C5484078002813D170
:102EE00002211C20FFF777F802212720FFF773F853
:102EF00002212820FFF76FF802212B20FFF76BF843
:102F000002212C20FFF767F810BD10B5B9484078B2
:102F100000280BDCB7480078002807DCB54880782B
:102F2000002803DCB348C078002804DD0321062014
:102F3000FFF751F803E002210620FFF74CF80121CA
:102F40000720FFF748F801210820FFF744F810BDDB
:102F50007047704710B501211120FFF73CF801219F
:102F60001220FFF738F801211320FFF734F8012170
:102F70001420FFF730F801211520FFF72CF801216C
:102F80001620FFF728F801211720FFF724F8012168
:102F90001820FFF720F801211920FFF71CF8012164
:102FA0001A20FFF718F810BD10B5934800780128D3
:102FB0007ED192480068401C90490860084600682D
:102FC000FA280DD38E480078012148408C490870BA
:102FD00000208A4908608B480078401C89490870A5
:102FE00088480078062806DB012087490870002001
:102FF0008449087002E00020834908708048007806
:1030000001282AD17B48017801220D20FFF7B6F86C
:1030100003211F20FEF7DFFF03212020FEF7DBFF47
:1030200001212F20FEF7D7FF01213020FEF7D3FF2B
:103030006F48007801283AD103212320FEF7CBFF07
:1030400003212420FEF7C7FF01213120FEF7C3FF33
:1030500001213220FEF7BFFF29E0664801780022F7
:103060000D20FFF78BF802211F20FEF7B4FF02218D
:103070002020FEF7B0FF00212F20FEF7ACFF00213B
:103080003020FEF7A8FF5A48007801280FD102210E
:103090002320FEF7A0FF02212420FEF79CFF002141
:1030A0003120FEF798FF00213220FEF794FF00E068
:1030B0000DE055480078012808D100204E490870DD
:1030C0004C48017801220D20FFF758F8DCE14A480E
:1030D000407801287ED149484068401C47494860F3
:1030E00008464068FA280DD34548407801214840F9
:1030F0004349487000204149486042484078401C9C
:10310000404948703F484078062806DB01203E4988
:10311000487000203B49487002E000203A4948705E
:103120003748407801282AD13248417801220E20C0
:10313000FFF724F803212320FEF74DFF032124206D
:10314000FEF749FF01213120FEF745FF0121322022
:10315000FEF741FF2648007801283AD103211F20BD
:10316000FEF739FF03212020FEF735FF01212F2034
:10317000FEF731FF01213020FEF72DFF29E01D4829
:10318000417800220E20FEF7F9FF02212320FEF7EE
:1031900022FF02212420FEF71EFF00213120FEF72E
:1031A0001AFF00213220FEF716FF1148007801288F
:1031B0000FD102211F20FEF70EFF02212020FEF773
:1031C0000AFF00212F20FEF706FF00213020FEF726
:1031D00002FF00E022E00C48407801281DD10020C9
:1031E000054913E054000020530000205500002042
:1031F00056000020590000204F00002084010020CC
:10320000690000206D000020710000204870FB481C
:10321000417801220E20FEF7B1FF35E1F8488078B1
:1032200001287CD1F7488068401CF6498860084630
:103230008068FA280DD3F448807801214840F2498B
:1032400088700020EF498860F0488078401CEF4982
:103250008870EE488078062806DB0120EC498870EB
:103260000020EA49887002E00020E9498870E648B9
:10327000807801282AD1E148817801220F20FEF7C9
:103280007DFF03212520FEF7A6FE03212620FEF761
:10329000A2FE01213320FEF79EFE01213420FEF71D
:1032A0009AFEDC48407801283CD103212920FEF712
:1032B00092FE03212A20FEF78EFE01213520FEF723
:1032C0008AFE01213620FEF786FE2BE0CB4881786E
:1032D00000220F20FEF752FF02212520FEF77BFE81
:1032E00002212620FEF777FE00213320FEF773FE31
:1032F00000213420FEF76FFEC6484078012811D126
:1033000002212920FEF767FE02212A20FEF763FE34
:1033100000213520FEF75FFE0021362000E00FE09F
:10332000FEF759FEBA488078012808D10020B44938
:103330008870B248817801220F20FEF71FFFA3E0BA
:10334000AF48C07801287CD1AE48C068401CAD4968
:10335000C8600846C068FA280DD3AB48C078012180
:103360004840A949C8700020A649C860A748C0784D
:10337000401CA649C870A548C078062806DB012075
:10338000A349C8700020A149C87002E00020A049EC
:10339000C8709D48C07801282AD19848C178012278
:1033A0001020FEF7EBFE03212920FEF714FE032177
:1033B0002A20FEF710FE01213520FEF70CFE012128
:1033C0003620FEF708FE9348407801283CD10321BF
:1033D0002520FEF700FE03212620FEF7FCFD01213B
:1033E0003320FEF7F8FD01213420FEF7F4FD2BE039
:1033F0008248C17800221020FEF7C0FE0221292059
:10340000FEF7E9FD02212A20FEF7E5FD0021352027
:10341000FEF7E1FD00213620FEF7DDFD7D48407816
:10342000012811D102212520FEF7D5FD02212620F9
:10343000FEF7D1FD00213320FEF7CDFD0021342021
:1034400000E00FE0FEF7C7FD7148C07801281BD1EE
:1034500000206B49C8706948C17801221020FEF72E
:103460008DFE11E067480021016041608160C1600C
:103470001021654803F008F81021644803F004F8AF
:103480001021634803F000F85D484078012840D0DF
:103490005B480078012803D15E480078012838D0C5
:1034A00056484078002807DC5448007800281ADD88
:1034B00058480078012816D15048417801220E2042
:1034C000FEF75CFE03212320FEF785FD0321242067
:1034D000FEF781FD01213120FEF77DFD0121322023
:1034E000FEF779FD15E04548417800220E20FEF7F1
:1034F00045FE02212320FEF76EFD02212420FEF767
:103500006AFD00213120FEF766FD00213220FEF722
:1035100062FD3B480078012840D0394840780128B6
:1035200003D13C480078012838D03448007800287E
:1035300007DC3248007800281ADD36480078012878
:1035400016D12E48017801220D20FEF717FE032127
:103550001F20FEF740FD03212020FEF73CFD012146
:103560002F20FEF738FD01213020FEF734FD15E055
:103570002248017800220D20FEF700FE02211F20C4
:10358000FEF729FD02212020FEF725FD00212F2036
:10359000FEF721FD00213020FEF71DFD1848C07800
:1035A00001284FD016488078012803D11948407867
:1035B000012847D01148C078002807DC0F488078E0
:1035C000002829DD13484078012825D10B48C1780F
:1035D00001221020FEF7D2FD03212920FEF7FBFC7B
:1035E00003212A20FEF7F7FC01213520FEF7F3FC2A
:1035F00001213620FEF7EFFC24E0000059000020F6
:103600004F00002084010020690000206D00002090
:1036100071000020560000204048C1780022102090
:10362000FEF7ACFD02212920FEF7D5FC02212A205D
:10363000FEF7D1FC00213520FEF7CDFC002136201D
:10364000FEF7C9FC36488078012840D03448C0785D
:10365000012803D133484078012838D02F4880789A
:10366000002807DC2D48C07800281ADD2D48407856
:10367000012816D12948817801220F20FEF77EFD0E
:1036800003212520FEF7A7FC03212620FEF7A3FC3B
:1036900001213320FEF79FFC01213420FEF79BFC23
:1036A00015E01E48817800220F20FEF767FD0221F9
:1036B0002520FEF790FC02212620FEF78CFC00213D
:1036C0003320FEF788FC00213420FEF784FC10BD77
:1036D00010B515480078012804D103210420FEF715
:1036E0007AFC03E002210420FEF775FC10BD10B542
:1036F000FFF77AFBFFF787FBFFF794FBFFF7A1FBD0
:10370000FFF752FCFFF701FCFFF722FCFFF721FC5B
:10371000FFF720FCFFF7DCFF10BD00005900002080
:103720004F00002056000020580000200848804725
:103730000848804708480047FEE7FEE7FEE7FEE747
:10374000FEE7FEE705480649064A074B70470000BA
:10375000793700006D370000C10000000803002029
:10376000080B002008070020080700200F48104918
:10377000086010490860704772B60F480F4908602A
:103780000F4800680F4908400F4940180C4908606D
:103790000E48486081200A49C031486028204860AE
:1037A0000B480863002048607047000020A1070014
:1037B000780000207C000020A095695A001A004083
:1037C00040000040FFF00000000807A500000A5775
:1037D0000003587810B50246A523FE4C63605A23B7
:1037E0006360FC4B803B1868B12424020346A3436A
:1037F0001846002A06D0012A08D0022A0AD0032A35
:1038000010D10BE00123DB0318430BE009231B035A
:10381000184307E005235B03184303E00B231B0356
:10382000184300BF00BF012902D10B02184304E076
:10383000FF2401340346A3431846E64B803B18603F
:103840000023E44C636010BD38B5044602221146E3
:10385000E14801F044FF03220221DF4801F068FF44
:1038600000220221DC4801F08DFF02220321DA4808
:1038700001F035FF03221146D74801F059FF00221D
:103880000321D54801F07EFFD248C038006800907F
:103890000F210903009888430090200300990843F2
:1038A0000090CE4900980843CA49C03908600021F9
:1038B0000220FFF78FFF38BD0EB5C649C0398968B1
:1038C0000122D2021143C34AC03A91600021009103
:1038D00000BFC049C0398968FF22013211400191FF
:1038E0000099491C00916A469188002903D10099EA
:1038F000491C0029EDD10021029103E000BF02998B
:10390000491C02910122D20202999142F6D3B14997
:10391000C0398968D2101140002901D0012000E08F
:1039200000200EBD08B5AB49C039096800910F22CF
:1039300012020099914300910102009A11430091F3
:10394000A64A00991143A34AC03A116008BD08B5C0
:10395000A049C03909680091F02200999143009173
:103960000101009A114300919C4A00991143994A20
:10397000C03A116008BD10B50246A523954C63609E
:103980005A236360934B803B1868BD240346A343CE
:103990001846002A06D0012A06D0022A06D0032A99
:1039A00008D105E0B02005E0A42003E0982001E064
:1039B0008C2000BF00BF012902D10123184301E080
:1039C00040084000834B803B18600023814C6360BB
:1039D00010BD38B50446022201217F4801F07FFE68
:1039E000032201217C4801F0A3FE002201217A4834
:1039F00001F0C8FE02220021774801F070FE032288
:103A00000021754801F094FE00221146724801F031
:103A1000B9FE7048C03800680090009800090001A5
:103A200000900098204300906C4900980843694931
:103A3000C039086000210120FFF79DFF38BD0EB599
:103A40006449C039896808221143624AC03A9160CA
:103A50000021009100BF5F49C0398968CA07D20FB1
:103A600001920099491C009169468988002903D177
:103A70000099491C0029EED10021029103E000BF0A
:103A80000299491C02910122D20202999142F6D375
:103A90005049C0398968C907C90F002901D00120E0
:103AA00000E000200EBD0CB5002001904948C03850
:103AB0008068102108434749C039886000BF4548E5
:103AC000C03880681021084000900198401C019087
:103AD0000198401C002803D0684600881028EED1C9
:103AE0003C48C0388068102108400090694608882A
:103AF000102801D000200CBD0120FCE708B50028EB
:103B000001D0012807D13349C0390968344A11432B
:103B1000304AC03A11602F49C03949680091009974
:103B2000C908C90000910099014300912D4A0099EC
:103B30001143284AC03A516008BD0146254AC03A9F
:103B40005068042302469A4310468A001043254ACF
:103B50000243204BC03B5A60704770B504460D4687
:103B6000022204211C4801F0BAFD012204211A4856
:103B700001F0DEFD28012107090F08431549C0396E
:103B8000086170BDFCB50446089E079D00200190A9
:103B9000002C04D10F4FC03F38620120FCBD480506
:103BA0000127BF053843170538431F0438432F0248
:103BB000384337013843099F3843064FC03F3862C6
:103BC00000BF00BF00BF00BF00BF0248C038006A8E
:103BD000012709E00001004000150040000007A592
:103BE000888007A500000A57FF053843FD4F38625B
:103BF0000020FD4F386004E0FB480068401CFA4F8D
:103C00003860F9480068FF28F6D900BFF548006A17
:103C1000C00FC0070028F9D0F248006AC00FC007E3
:103C200000900127FF070098B84201D00020B5E7B7
:103C30000120B3E7F0B589B004460D460027002007
:103C4000089007900690059000260490002C0BD059
:103C5000042C09D0062C07D0082C05D00A2C03D040
:103C60000C2C01D0102C10D10820FFF7B2FEFFF76A
:103C7000E6FE0620FFF742FFDC486043DC490860AF
:103C8000DA486043DB4908601AE0202C14D109208F
:103C9000FFF75DFE0220FFF731FFE10F0919491020
:103CA000D24A5143D24A1160E10F09194910CF4A53
:103CB0005143D04A116003E00020C04309B0F0BD79
:103CC000002C01D100271EE0042C01D101271AE0AD
:103CD000062C01D1022716E0082C01D1032712E09F
:103CE0000A2C01D104270EE00C2C01D105270AE093
:103CF000102C01D1072706E0202C01D1072702E074
:103D00000020C043DAE7791C204602F005FC064695
:103D1000012D29DD012E06D1681E08900020079094
:103D20000690059027E0022E07D1681E089001201A
:103D300007900020069005901DE0032E07D1681E15
:103D400008900220079000200690059013E0042EB2
:103D500007D1681E0890012007900020069005906A
:103D600009E00020C043A9E704200890092007903B
:103D70000020069005900898704304900498C82885
:103D80003BD80698C0B20799C9B2089AD2B2FBB222
:103D90000092019102900598C2B201210846FFF7F6
:103DA000F1FE012826D1002C0BD0042C09D0062CC2
:103DB00007D0082C05D00A2C03D00C2C01D0102CD5
:103DC00003D10720FFF79AFE04E0202C02D1032044
:103DD000FFF794FE85486843854908608348684337
:103DE00084490860012200218148006802F048F8F7
:103DF000002063E70020C04360E70020C0435DE788
:103E0000014601229207906B131202469A43104614
:103E10008A0510431A0290637047014601229207F7
:103E2000906B931202469A4310460A0510439A0279
:103E300090637047014601229207906B531302462C
:103E40009A4310464A0410435A0390637047014650
:103E500001229207906B182302469A431046CA002B
:103E60001043012292079063704701460122920796
:103E7000906B4008400002460A4310460122920718
:103E800090637047014601229207906BC02302465F
:103E90009A4310468A0110430122920790637047AB
:103EA00038B51C46030003F062FD08D6052A527798
:103EB000A9C0C1D64B4B40331B69009300290BD1DD
:103EC000009BDB0ADB02009353075B0DE5B22B433B
:103ED000009D2B4300930DE001290BD1464D009B23
:103EE0002B40009353075B0925062D0A2B43009DA9
:103EF0002B4300933B4D4035009B2B61ABE00023EF
:103F0000384D40356B612B465B69009302290BD11C
:103F1000009BDB0ADB02009353075B0DE5B22B43EA
:103F2000009D2B4300930DE003290BD1324D009BE4
:103F30002B40009353075B0925062D0A2B43009D58
:103F40002B430093274D4035009B6B6183E0254B4D
:103F500040339B69009304290BD1009BDB0ADB02F1
:103F6000009353075B0DE5B22B43009D2B43009359
:103F70000DE005290BD1204D009B2B4000935307EA
:103F80005B0925062D0A2B43009D2B430093154DFD
:103F90004035009BAB615EE0124B4033DB69009320
:103FA00006290BD1009BDB0ADB02009353075B0D54
:103FB000E5B22B43009D2B4300930DE007290BD165
:103FC0000D4D009B2B40009353075B0925062D0ADE
:103FD0002B43009D2B430093024D4035009BEB612A
:103FE00039E00000400000408000002040420F0007
:103FF000780000207C000020FFFF00F8F74B1B6AD0
:10400000009309290CD1F64D009B2B400093230609
:104010001B0A55076D092B43009D2B43009300E0BD
:1040200000BFEE4D009B2B6215E014E0EB4B9B6A4A
:10403000009308290BD1EA4D009B2B4000932306E7
:104040001B0A55076D092B43009D2B430093E34D3D
:10405000009BAB6200BF00BF38BD012905D18A07B4
:10406000126902438B071A6106E001229207126966
:10407000824301239B071A61704701208007406932
:1040800070470121890748617047D4484038C068AB
:1040900070478106890ED34A1143D04A403AD16015
:1040A0007047012905D18A07926902438B079A61FB
:1040B00006E0012292079269824301239B079A61DD
:1040C000704701208007C069704701218907C969CD
:1040D000014301229207D1617047C0484068C0B2D5
:1040E000704710B50246012A05D10802BE4C204394
:1040F000BA4B986001E0BC48401EB84B986010BDB8
:1041000001208007406830221040014630200840DE
:10411000002800D1704730200840102801D101202C
:10412000F8E730200840202801D10220F2E73020B3
:104130000840302801D10320ECE70020EAE738B539
:10414000A64B1B6A00931F24E402009BA343009329
:104150008B030324A4032340140303252D032C40C5
:104160002343C4020125ED022C402343009C23433A
:1041700000939A4C009B236238BD08B5974840686D
:1041800000900098C007C00F002801D0012008BD92
:104190000020FCE770B505460C46002D06D0012D29
:1041A00033D0022D71D0032D70D172E0002C0CD1D0
:1041B0000820FFF7B7FB0020FFF7A0FC8B488C49D5
:1041C00008608C490860012070BD022C0CD10920C8
:1041D000FFF7A8FB0020FFF791FC8748844908609F
:1041E000844908600120EFE7042C0CD10A20FFF776
:1041F00099FB0020FFF782FC80487D4908607D49DB
:1042000008600120E0E70020DEE70820FFF79FFBC1
:10421000002C12D10820FFF717FBFFF74DFB012000
:10422000FFF76CFC0120C003714908607149086008
:104230000020FFF78CFB0120C6E7022C11D10920DA
:10424000FFF702FBFFF738FB0120FFF757FC600385
:1042500067490860674908600020FFF778FB012084
:10426000B2E7042C13D10A20FFF7EEFAFFF724FB84
:104270000120FFF743FCE0025D4908605D490860EA
:104280000020FFF764FB01209EE737E092E000206A
:104290009AE7002C0ED10820FFF79BFBFFF7CFFB1E
:1042A0000620FFF72BFC5648514908605149086029
:1042B000012089E7022C0ED10920FFF78AFBFFF7C6
:1042C000BEFB0620FFF71AFC4E48494908604949E1
:1042D0000860012078E7042C0ED10A20FFF779FB53
:1042E000FFF7ADFB0620FFF709FC4748404908608F
:1042F00040490860012067E7002065E7002C0CD1E9
:104300000820FFF724FB0220FFF7F8FB3F4838495D
:10431000086038490860012056E7022C0CD10920BA
:10432000FFF715FB0220FFF7E9FB39483049086029
:1043300030490860012047E7042C0CD10A20FFF720
:1043400006FB0220FFF7DAFB2D48294908602949BE
:104350000860012038E7082C0CD10B20FFF7F7FA92
:104360000220FFF7CBFB274821490860214908605C
:10437000012029E7102C0CD10C20FFF7E8FA0220CD
:10438000FFF7BCFB20481A4908601A490860012061
:104390001AE7202C0CD10D20FFF7D9FA0220FFF7E5
:1043A000ADFB1C48124908601249086001200BE768
:1043B000002009E7002007E730B502460C46002A36
:1043C00002D110211023E5E0012A02D111020B468F
:1043D000E0E0022A20D111020B46DBE08000004021
:1043E000FFFF00F800002CA30100140520A1070026
:1043F000780000207C00002090D0030048E80100F5
:1044000000127A0000093D0080841E000048E80187
:104410000024F40040420F00032A03D10121890245
:104420000B46B7E0042A02D151020B46B2E0052A3E
:1044300003D1012109030B46ACE0062A03D1012177
:1044400049030B46A6E0072A03D1012109040B46C4
:10445000A0E0082A02D191030B469BE0092A03D170
:10446000012189040B4695E00A2A03D10121C904E0
:104470000B468FE00B2A03D1012109050B4689E089
:104480000C2A03D1012149050B4683E00D2A03D1F3
:10449000012189050B467DE00D2A03D10121890503
:1044A0000B4677E00E2A03D1012149060B4671E045
:1044B0000F2A03D1012189060B466BE0102A02D195
:1044C00011050B4666E0112A02D1D1070B4661E0C7
:1044D000122A02D1102110235CE0132A02D12021DC
:1044E000202357E0142A02D14021402352E0152A0C
:1044F00003D1FF2101310B464CE0162A03D10121E3
:1045000049020B4646E0172A03D1012189020B46D6
:1045100040E0182A03D10121C9020B463AE0192ACA
:1045200003D1012109030B4634E01A2A03D10121EA
:1045300049030B462EE01B2A03D1012189030B46B8
:1045400028E01C2A03D10121C9030B4622E01D2AC1
:1045500003D1012109050B461CE01E2A03D10121CC
:1045600089050B4616E01F2A03D10121C9050B4618
:1045700010E0202A02D191050B460BE0212A02D13E
:1045800011070B4606E0222A02D191070B4601E0F3
:10459000002030BD112A15DC01208007806A884385
:1045A0000125AD07A8622846006B98432863012CBB
:1045B00024D1A007806A0843A862A007006B1843B3
:1045C00028631BE0112A17DD222A15DC0120800751
:1045D000C06A88430125AD07E8622846406B9843CE
:1045E0006863012C0AD1A007C06A0843E862A007EB
:1045F000406B1843686301E00020CAE70120C8E768
:104600000146F848814201D100207047F6488142B6
:1046100001D10120F9E7F548814201D10220F4E7F8
:104620000020C043F1E770B504460D46ED488442D2
:1046300018D1C004C06A102188438906C8620846A0
:10464000406B10218843890648630846C06A1021E0
:1046500008438906C8620846406B10210843890652
:10466000486336E0E048844218D18005C06A2021C2
:1046700088434906C8620846406B202188434906A2
:1046800048630846C06A202108434906C8620846B4
:10469000406B20210843490648631AE0D34884420E
:1046A00017D14005C06A402188430906C862084600
:1046B000406B40218843090648630846C06A402190
:1046C00008430906C8620846406B402108430906B2
:1046D000486380202060206820210843206029460C
:1046E000C348006801F018FF8008401E4008A06120
:1046F0002946BF48006801F00FFF8008401E4008AF
:10470000E06101206061206808210843206070BDDD
:10471000B44988420CD1C104C96A10229143C20431
:10472000D162C104496B10229143C20451631EE05F
:10473000AD4988420CD18105C96A20229143820586
:10474000D1628105496B20229143820551630EE0BD
:10475000A64988420BD14105C96A402291434205CE
:10476000D1624105496B4022914342055163704734
:1047700070B504460D46002D1DD09A48844206D1DE
:104780000A2000F01CFC0A2000F00AFC27E09648F2
:10479000844206D10E2000F012FC0E2000F000FC36
:1047A0001DE0924884421AD1192000F008FC19201B
:1047B00000F0F6FB13E08B48844203D10A2000F09E
:1047C000F6FB0CE08848844203D10E2000F0EFFB9A
:1047D00005E08648844202D1192000F0E8FB70BD54
:1047E000F8B505462846FFF70BFF064670018149DC
:1047F00044186F68452F4CD006DC202F72D0222F32
:1048000071D0442F72D15CE0472F12D0852F2CD06D
:10481000872F6BD1A168E068884207D2E1686068A1
:10482000405C2861E068401CE06001E0A220286054
:104830005DE0A168E068884207D2E1686068405C9A
:104840002861E068401CE0600EE06169A069884270
:1048500008D220684000401C2861286801210843D4
:10486000286001E0A220286041E06169A0698842D7
:104870000CD26069012806D96069401EA169814295
:1048800001D200BF04E0A020286001E0A22028603F
:104890002DE06169A069884212D22869A269216964
:1048A0008854A069401CA0616069012806D960692C
:1048B000401EA169814201D200BF01E0A020286012
:1048C00015E06169A069884208D22869A269216956
:1048D0008854A069401CA061A220286007E001E084
:1048E00001E003E000BFA820286004E000BF00BF93
:1048F000FF206860F8BDFF20686000212846FFF7B0
:1049000037FF01203C49885500BFF3E7F8B505465D
:104910002846FFF775FE06467001364944186F6851
:10492000222F1FD006DC152F0BD0172F1BD0202FC6
:104930002AD116E0452F05D0462F15D0472F23D179
:1049400013E000BF21696069884209D2E06800284D
:1049500006D028696269E16888546069401C60611A
:1049600012E000BF14E000BF00BF6168A068884289
:1049700009D22068002806D0A1682068405C286120
:10498000A068401CA06000BF00BFFF206860F8BDA9
:10499000FF20686000212846FFF7EAFE0120174942
:1049A000885500BFF3E770B502460B46002000248F
:1049B000FF2555600BE0156810263540002D00D00E
:1049C00006E0651CECB2642C01DB00241360F2E706
:1049D00000BF516847291BD012DC44291AD0452951
:1049E0001BD118E00048004000490040004A004048
:1049F0007C0000209401002084000020870000201B
:104A0000852903D0872908D1022015E0012013E071
:104A1000042011E000BF03200EE008250D40002D0A
:104A200001D0052007E020250D40002D01D00620F3
:104A300001E00020C04300BF00BF70BDF7B584B0E7
:104A400004460D4600200190E860A86104E001984A
:104A5000401CC0B2019000BF6068042108400028DB
:104A6000F5D1069800287DD1E860A861A968E868BA
:104A700088425ED2286840002061206801210843F6
:104A800020602068029020460299FFF78CFF0646BE
:104A9000022E10D020680221084320602068029076
:104AA00020460299FFF77FFFFF206060A82020606A
:104AB000002007B0F0BD0120039037E0A968E86846
:104AC00088421DD2E9686868405C2061E868401C43
:104AD000E86020460299FFF766FF0646042E25D0BF
:104AE0002068022108432060206802902046029935
:104AF000FFF759FFFF206060A82020600020D8E762
:104B00006969A86988420FD32068022108432060A0
:104B10002068029020460299FFF745FFFF20606061
:104B2000A82020600120C4E70020039003980028FB
:104B3000C4D16969A86988427ED228684000401CB7
:104B400020612068012108432060206802902046EF
:104B50000299FFF728FF0646012E11D02068022196
:104B6000084300E06DE02060206802902046029932
:104B7000FFF719FFFF206060A8202060002098E761
:104B80000120039048E0686901281BD96869401E2C
:104B9000A969814216D220460299FFF704FF064612
:104BA000032E2CD020680221084320602068029048
:104BB00020460299FFF7F7FEFF206060A8202060E2
:104BC000002076E72068A02108402060206802903D
:104BD00020460299FFF7E7FE0646032E0FD0206815
:104BE0000221084320602068029020460299FFF7C6
:104BF000DAFEFF206060A8202060002059E72069CD
:104C0000AA6929698854A869401CA8616969A869CA
:104C1000884201D10020039003980028B3D1206876
:104C20000221084320602068029020460299FFF785
:104C3000BAFEFF20606000E035E0A820206001207F
:104C400037E7069801282ED12046FFF7D9FC074602
:104C50000020DE49C8557901DD4A88181C22294602
:104C6000FBF7FEFA00207901D94A8918C8610121B1
:104C70002046FFF77DFDA968E868884203D22868CE
:104C80004000206107E06969A869884203D228686A
:104C90004000401C206120680121084320602068FA
:104CA0000290012005E7002003E710B5014600202F
:104CB000FF234B6005E00B6810242340002B00D03D
:104CC00000E0F8E700BF4A68472A14D006DC152A3E
:104CD00009D0172A0AD0452A0FD10AE0952A03D015
:104CE000972A0AD103E000BF012015E000BF02208F
:104CF00012E0032010E004200EE008231340002BF4
:104D000001D0052007E020231340002B01D006200E
:104D100001E00020C04300BF00BF10BDF7B505464D
:104D20000C460020A06060610298002839D12FE075
:104D30002846FFF7BAFF07463B0002F018FE072699
:104D4000051506162725270000BF216960698842DE
:104D500009D2E068002806D028696269E1688854B1
:104D60006069401C606112E000BF6168A068884211
:104D700009D22068002806D0A1682068405C28611C
:104D8000A068401CA06002E003E000E005E000BF76
:104D9000CEE7FF2068600120FEBDFF206860002094
:104DA000FAE70298012818D12846FFF729FC0646A1
:104DB0000020884988557101854A881818222146A3
:104DC000FBF74EFA01207101814A8918C86101215F
:104DD0002846FFF7CDFC0120DEE70020DCE770B5B8
:104DE00005460C461646002020616061E060A06127
:104DF000324621462846FFF721FE70BD70B50546B4
:104E00000C46164600206060A060E060A06132465B
:104E100021462846FFF712FE70BD70B505460C46C8
:104E20001646002020606060A06060613246214626
:104E30002846FFF773FF70BD10B54B00012A01D162
:104E4000012400E000242343DBB2836010BD10B5D1
:104E50004B00012A01D1012400E000242343DBB2EE
:104E6000C36010BD70B505462846FFF7C9FB044670
:104E70005648065D002055490855304670BD70B54E
:104E800005462846FFF7BCFB04465248065D002055
:104E900050490855304670BD70B50446206A8008F8
:104EA0008000012902D10125284301E0400840008B
:104EB000012A02D10225284303E002260546B54314
:104EC000284620621D022D0A656270BD41680122DC
:104ED000D207114341607047026803231B029A43C3
:104EE000026002680B401B021A430260704770B5F3
:104EF0000446A56A2807000F012B08D1002901D11B
:104F00000225284301290BD10125284308E0002967
:104F100003D102260546B5432846012900D188431E
:104F2000012A08D1002901D108252843012910D1DF
:104F3000042528430DE0002A0BD1002903D10826BF
:104F40000546B5432846012903D104260546B54345
:104F50002846A06270BD30B503460A46986A03250C
:104F60002D0228400446002A0AD101204002204098
:104F700001256D02A84201D101210BE0002109E0C9
:104F8000012A07D1100220401502A84201D10121B7
:104F900000E00021002901D0012030BD0020FCE705
:104FA000C206D20E012191400B4A11607047C20621
:104FB000D20E01219140084A803211607047C2062A
:104FC000D20E01219140054A1160704784000020F3
:104FD000940100208700002000E100E080E200E072
:104FE00030B504460D462B0002F0C1FC060406084D
:104FF0000A0C0E10012109E0022107E0042105E05E
:10500000082103E0102101E0202100BF00BF012A98
:1050100003D160680843606004E060683F238B430D
:1050200018406060002030BD0146FE4A914207D121
:10503000FD4A1278002A01D0FC480EE000200CE066
:10504000FB4A914208D1F84A1278002A02D0F74868
:10505000183002E0002000E000207047F0B506465E
:105060000C4615461F463046FFF7DEFF0346002B71
:1050700010D00020187498805880188058811881AA
:10508000D880002C03D158619881D88102E05C61FE
:105090009D81DF81F0BDFEB504460D46E5480668FA
:1050A0002F013946304601F037FA029002987843D2
:1050B000301A009000990802394601F02DFA01904B
:1050C000029880B220620198C0B26062FEBD70B5E5
:1050D00004460E46D348844203D101211920FFF72C
:1050E0006BF9D348844203D101211A20FFF764F9F8
:1050F00001E02068C5B26069C007C00F0028F8D180
:1051000000BF6069202108400028FAD000206060BC
:10511000E06020616069C5B2A068C5B2C648006899
:105120004008C449086020463168FFF7B4FFE068D2
:105130004021084005463079002806D0012806D0D5
:10514000022807D0032808D108E000BF09E00120A9
:10515000054306E00220054303E000BF03200543AA
:1051600000BF00BF7079002818D00820054370796F
:10517000012806D0022806D0032807D004280BD126
:1051800007E000BF09E01020054306E020200543AA
:1051900003E03020054300E000BF00BFB0790028E5
:1051A00005D0012802D10420054301E000BF00BF63
:1051B00000BF6806400EE060F389B2892046B168FE
:1051C000FFF74CFFB068002811D0012200212046D3
:1051D000FFF706FF9348844203D1132000F068FADA
:1051E00005E09348844202D1142000F061FA0020C7
:1051F00070BD10B504468B48844203D100211920AC
:10520000FFF7DAF88A48844203D100211A20FFF719
:10521000D3F8002010BD01464B2040020860032057
:1052200008710020487188717047024611600020A3
:10523000704701460868C0B27047FFB50646019D39
:10524000029C039801281BD1002316E00027FF438E
:1052500003E0002F00D105E07F1E70692021084087
:105260000028F6D000BF002F00D108E029786D1C7F
:105270003046FFF7DAFF641E5B1C002CE6D111E01C
:1052800000230CE0706920210840002800D108E0CC
:1052900029786D1C3046FFF7C8FF641E5B1C002C8C
:1052A000F0D100BF184604B0F0BDFFB50546164664
:1052B000019C3346039801281BD1002216E00027E9
:1052C000FF4303E0002F00D105E07F1E6869C0079F
:1052D000C00F0028F6D000BF002F00D108E02846FC
:1052E000FFF7A7FF2070641C5B1E521C002BE6D149
:1052F00011E000220CE06869C007C00F002800D14F
:1053000008E02846FFF795FF2070641C521C5B1EC6
:10531000002BF0D100BF104604B0F0BD0146C868B4
:1053200040221043C860002070470146486940068B
:10533000400E704701468868C006C00E704701469F
:10534000486940221040002801D000207047012009
:10535000FCE730B503460C46002C06D0012C06D0E5
:10536000022C06D0032C08D105E0102106E008210C
:1053700004E0042102E00C2100E000BF00BF012A8C
:1053800003D118690843186104E018691C258D438E
:1053900028401861002030BD0246082900DA116358
:1053A0000020704710B504462046FFF73DFE034637
:1053B000002B07D0002018749880588018805881DE
:1053C0001881D88010BD30B504460D462046FFF741
:1053D0002BFE0346002B3ED0D889002833DD5889A8
:1053E000002806D1606920210840002801D02560EE
:1053F00038E000BF5889D9898842FBD072B69889B5
:105400001989401859690D541889401C80B21881B7
:10541000D989884201DB002018815889401C5881B5
:1054200060680BE00040004090000020F401002084
:10543000004100408C000020780000200221084339
:10544000606062B60EE000BF6069602108406028BD
:10545000FAD1256006E000BF60696021084060283D
:10546000FAD1256030BDF7B50D4614462F4600260B
:1054700005E039787F1C0098FFF7A5FF761CA6424F
:10548000F7DB2046FEBD01468888002801D1401E7A
:10549000704772B60B884869C25C0888401C80B2AD
:1054A00008808B89984201DB002008808888401E94
:1054B000888062B61046EBE770B504462046FFF7D9
:1054C000B3FD0546002D07D000BF2846FFF7DBFFE0
:1054D000061EFADB304670BD00BF6069C007C00F12
:1054E0000028FAD02068F6E7F7B50D4616462F4695
:1054F000002405E00098FFF7DFFF38707F1C641C74
:10550000B442F7DB2046FEBDF0B507460C46002648
:1055100000BF2578641C002D00D105E0E9B23846B3
:10552000FFF751FF761CF4E700BF3046F0BD0FB423
:1055300038B5054606A8009080216148009B059A71
:1055400000F06AFF0446002C04DD22465C49284630
:10555000FFF789FF00200090204638BC08BC04B04B
:10556000184710B503461846FFF75EFD0446002CA9
:1055700001D0A08810BD5869C007C00FFAE730B548
:1055800004460025ED432046FFF7EBFF002803D03B
:105590002046FFF791FF0546284630BDF7B50D467A
:1055A0001646002408E00098FFF786FF07460D2FF7
:1055B00000D104E02F55641C701EA042F3DC00BF34
:1055C00000222046641C2A542046FEBDF0B5044645
:1055D0002046FFF729FD034600BFA068C606F60E69
:1055E000012E00D162E0022E19D0042E02D0062E28
:1055F0005BD136E027689888998988420EDA9888C6
:10560000401C98805A8859698F545888401C80B231
:1056100058809989884201DB0020588045E05889EC
:10562000002804D1606802210843606018E0D8892E
:10563000002815DD9889D988401859690F5CD888E9
:10564000401C80B2D880D989884201DB0020D880F4
:1056500027605889401E80B25881002800DC24E071
:1056600023E0606945066D0E10202840002803D015
:10567000187C10210843187408202840002803D003
:10568000187C08210843187404202840002803D0FF
:10569000187C04210843187402202840002803D0F5
:1056A000187C02210843187400BF96E700BFF0BDC4
:1056B000C206D20E01219140024A116070470000DB
:1056C0002402002000E100E0A548006BFF21013129
:1056D0000840884201D1012070470020FCE778B5DE
:1056E00003460C461646032A00D10122FFF7ECFFC1
:1056F0006500186800900320A8400099814300913C
:105700001046A84000990843009000981860586817
:1057100000900120A040009981430091032E04D104
:105720000120A0400099084300900098586078BD7F
:1057300038B503460C461546FFF7C6FF082C0FD2B6
:10574000A200986800900F2090400099814300913A
:10575000284690400099084300900098986010E017
:10576000204608388200D86800900F2090400099A9
:10577000814300912846904000990843009000988A
:10578000D86038BD38B503460C46FFF79DFF65006D
:10579000186900900320A8400099814300911046A9
:1057A000A8400099084300900098186138BD18B5CA
:1057B000436A009301238B40009C9C430094134652
:1057C0008B40009C23430093009B436218BD18B597
:1057D00003460C46FFF778FF986A00900120A0402E
:1057E0000099814300911046A04000990843009021
:1057F0000098986218BD08B5594AC03A12690092DB
:1058000001228240009B934300930A468240009B02
:105810001A430092524BC03B009A1A6108BD08B56A
:105820004F4AC03A1269009201228240009B934382
:1058300000930A468240009B1A430092484BC03BAB
:10584000009A1A6108BD08B5454AC03A52680092EC
:1058500083059B0D009A9A4300920A468240009B62
:105860001A4300923E4BC03B009A5A6008BD08B5EF
:105870003B4AC03A1269009283059B0D009A9A43F5
:1058800000920A468240009B1A430092344BC03B70
:10589000009A1A6108BD012804D13249304AC03A41
:1058A000116003E000212E4AC03A116070472C4875
:1058B000C03840688005800D70472948C0380069AD
:1058C0008005800D704770B503460C461546FFF7FE
:1058D000FBFE66001A6C0320B040114681430A4665
:1058E000012D02D10120B04002431A6470BD78B589
:1058F00004460D461646FFF7E7FE6A00E06A009090
:1059000003209040009981430091304690400099D7
:10591000084300900098E0626A00606B00900320EA
:1059200090400099814300911846904000990843A7
:1059300000900098606378BD0146086B704700B521
:1059400002460B46FFF7C0FE136300BDC1617047FE
:1059500001627047014648697047816170470000E5
:10596000C01F0040020700005A21F84A5160A521DB
:105970005160002802D1002151600EE00107F34A76
:1059800051601146896892141143F04A91601146A2
:10599000896840229143ED4A9160704710B50346F3
:1059A00072B6EB48EB4C2060EB48E84CC03C206002
:1059B000EA486060002010BD01460020704706E004
:1059C000E2488069C007C00F002800D100E0F7E777
:1059D00000BF70476620DD4948609920486000207C
:1059E0004863DF48D94940310861DE4848610020FA
:1059F000D6494860486070476621D44A5160992171
:105A00005160D9494868D949884206D10F2151636C
:105A1000D449CE4A4032516106E0FF21CB4A51635E
:105A2000D049CA4A40325161D149C84A4032116115
:105A30000021C64A51605160704700B5FFF7CAFFA8
:105A40008120C249486028204860CA480863002075
:105A5000486048605A204860A52048600846806831
:105A600010210843B94988600846806880210843AE
:105A7000B64988600846806802210843B3498860B7
:105A80000846806808210843B04988600846806855
:105A900001210843AD498860FFF791FF0020AB4921
:105AA0008860486000BD0246012A03D0022A01D066
:105AB000032A11D1012906D1A44880680B03184399
:105AC000A24B986006E0A148806801231B0398431D
:105AD0009E4B986001207047042A11D1012906D1FC
