:020000040000FA
:10000000000B0020053300003D2000003F200000D1
:1000100000000000000000000000000000000000E0
:10002000000000000000000000000000432000006D
:1000300000000000000000004520000047200000F4
:10004000492000004B200000652000004D200000EA
:100050004F20000051200000532000004D1F0000E1
:10006000B71F000055200000692000006F2000002D
:1000700067200000632000006B2000005F2000006C
:100080006120000071200000772000007520000032
:100090000320000057200000592000005B200000D2
:1000A0005D2000006D20000073200000792000001A
:1000B0007B2000001B3300001B3300007D2000006C
:1000C00000F002F800F0BDF80CA030C80838241881
:1000D0002D18A246671EAB4654465D46AC4201D180
:1000E00000F0AFF87E460F3E0FCCB64601263342F5
:1000F00000D0FB1AA246AB46334318478475000074
:10010000A4750000103A02D378C878C1FAD8520713
:1001100001D330C830C101D504680C6070470000BD
:100120000023002400250026103A01D378C1FBD813
:10013000520700D330C100D50B60704710B56E294F
:1001400002D106F0EDF810BD702902D106F02FFAA9
:1001500010BD662902D107F01FFA10BD652902D132
:1001600007F01AFA10BD672902D107F015FA10BD81
:10017000612902D1C046C04610BD03681B0A01D3E5
:1001800080231943692902D106F094F810BD64292F
:1001900002D106F08FF810BD752902D106F08AF859
:1001A00010BD6F2902D106F0ADF910BD782902D13A
:1001B00006F0EAF910BDE92902D106F049F910BDAF
:1001C000E42902D106F044F910BDF52902D106F068
:1001D0003FF910BDEF2902D106F0A0F910BDF829B2
:1001E00002D106F0DFF910BD0368DB0901D38023DB
:1001F0001943632902D106F058FD10BD732902D1BD
:1002000006F05BFD10BDE32902D106F065FD10BDCF
:10021000F32902D106F068FD10BD002010BD1FB506
:1002200006F0C2FD04000020002107F09FF9401CE9
:1002300060600020002107F083F9E0601FBD10B569
:1002400010BD06F089FD1146FFF7E9FF00F09BF9AC
:1002500007F01EF903B4FFF7F2FF03BC07F024F91F
:1002600070B505460C46164602E00FCC0FC5103E91
:10027000102EFAD2082E02D303CC03C5083E042E5A
:1002800007D301CC01C5361F03E021782970641C17
:100290006D1C761EF9D270BD70B504460D46012C5A
:1002A0005CD10021052001F0FAFC0021022001F0C0
:1002B000F6FC0021032001F0F2FC00211D2001F0DA
:1002C000EEFC00211E2001F0EAFC00211F2001F0BD
:1002D000E6FC0021202001F0E2FC0021212001F0B9
:1002E000DEFC0021222001F0DAFC0021232001F0B5
:1002F000D6FC0021242001F0D2FC0021252001F0B1
:10030000CEFC0021262001F0CAFC0021272001F0AC
:10031000C6FC0021282001F0C2FC0021292001F0A8
:10032000BEFC00212A2001F0BAFC00212B2001F0A4
:10033000B6FC00212C2001F0B2FC00211B2001F0B2
:10034000AEFC00211C2001F0AAFC0021062001F0D7
:10035000A6FC0021042001F0A2FC5DE0022C5BD190
:100360000221052001F09BFC0221084601F097FCC8
:100370000221032001F093FC02211D2001F08FFCDB
:1003800002211E2001F08BFC02211F2001F087FCBE
:100390000221202001F083FC0221212001F07FFCBA
:1003A0000221222001F07BFC0221232001F077FCB6
:1003B0000221242001F073FC0221252001F06FFCB2
:1003C0000221262001F06BFC0221272001F067FCAE
:1003D0000221282001F063FC0221292001F05FFCAA
:1003E00002212A2001F05BFC02212B2001F057FCA6
:1003F00002212C2001F053FC02211B2001F04FFCB4
:1004000002211C2001F04BFC0221062001F047FCD8
:100410000221042001F043FC70BD10B541E05F48AB
:100420000078002800DD3DE00121FF2001F037FCCD
:100430005B480078012818D15A480078401C594977
:10044000087008460078022802D101205649087039
:10045000544800781E2805DB01205449087000200C
:100460005049087000204E4908704F480078012814
:1004700008D1682002F0D2F8782002F0CFF80020EE
:10048000494908704948007801280AD10021FF2015
:1004900001F005FC00204549087001203F49087023
:1004A00000E0BCE700BF10BD10B51FE04048007879
:1004B000012809D100203E4908703E480078401CC0
:1004C0003C49087001F0F1FC3A480078052805DB4A
:1004D000002038490870782001F079FF364800780C
:1004E000192803D102202D49087000E0DEE700BF83
:1004F00010BD10B544E02E48007801280BD1002033
:100500002B4908702D480078401C2C49087001F0D8
:10051000CCFC02F0DDFE29480078052808DB00202D
:1005200026490870782001F052FF682001F04FFF43
:1005300023480078012810D1002021490870214863
:100540000078401C1F4908701B480078012802D120
:100550001249087015E001F01DFE1A4800780128C4
:1005600003D1002002F040FA0AE016480078022881
:1005700003D1012002F038FA02E00020114908708E
:10058000B9E700BF10BD00F0EBF905E0FFF745FF4C
:10059000FFF78AFFFFF7ADFFF8E700003C000020FF
:1005A0003D0000200000002001000020020000208B
:1005B000400000200300002048000020050000202B
:1005C0003F0000200600002010B5002819DAEF4A8D
:1005D00003071B0F083B9B089B00D2588307DC0EC8
:1005E000FF23A3409A438B071B0E8407E40EA3400E
:1005F0001A43E64B0407240F083CA408A4001A5130
:1006000018E0E34A03231B02D21883089B00D25848
:100610008307DC0EFF23A3409A438B071B0E84073E
:10062000E40EA3401A43DA4B032424021B19840866
:10063000A4001A5110BD1CB500200190D548806857
:1006400080218843D3498860082002F06CFFD1489C
:10065000006870218843D0490843CE4908600846A5
:10066000406804218843CD490843CA494860CC48C2
:10067000086200BFC748006AC00FC0070090019819
:10068000401C01900198401C002804D00121C9079A
:1006900000988842EED10198401C002802D0C14841
:1006A000BC490862BB48406880088000BB490843D9
:1006B000C01CB8494860BC48BC490860BC490860D7
:1006C000BC48B44940310861BB484861BB488861B7
:1006D000B948C861B94808621CBD01208007806A1A
:1006E0003F21090208430121890788620846006BFF
:1006F0003F210902084301218907086300BF152033
:10070000AF4908635120086300BF8007806A8915DC
:100710000843890588620846006B891508438905E6
:100720000863A848A8490860002048608860C8603D
:10073000086188628804806A49150843490588620F
:100740000846006B49150843490508639F48A049BE
:100750000860002048609F4888600020C8600861E9
:1007600088628805806A0915084309058862084679
:10077000006B091508430905086397489749086005
:10078000002048608860C860086188624805806A07
:10079000C9140843C90488620846006BC914084399
:1007A000C90408630A208E490860032048601120AC
:1007B00088600020C8600520086100208862012050
:1007C0008007806A89140843890488620846006BA0
:1007D000891408438904086382488349086000201B
:1007E00048608860C860086188620805806A4914AA
:1007F0000843490488620846006B491408434904C9
:100800000863081479490860002048608860C8605F
:100810000861886200BF6A49086300BF704710B56D
:1008200073480021016041608160C1604B20C001BC
:100830006F49086003200871002048718871886042
:100840000A20C88188816B4804F0FDF90122114615
:10085000684804F081F903211420FFF7B5FE142045
:1008600000F08DF810BD10B501208007C06A10217E
:1008700008438906C8620846406B10210843890670
:1008800048635D495D4803F0BAFC5C4800680C2190
:1008900008435A49086000221146584804F087F876
:1008A00000221146554804F082F810BD1FB5012002
:1008B00003F092F800200090019002900390012133
:1008C00068468171642181814D4901810121017155
:1008D0006A4600214B4805F01BF9012200214948D6
:1008E00005F01CFB03210720FFF76EFE072000F038
:1008F00046F8444805F0C6FA0121424805F0F1FAED
:10090000404805F0E0FA1FBD1FB5012003F064F870
:1009100000200090019002900390012168468171AF
:10092000818137490181002101716A46364805F00D
:10093000EFF801220021344805F0F0FA03210820E5
:10094000FFF742FE082000F01AF82F4805F09AFA47
:1009500001212D4805F0C5FA2B4805F0B4FA1FBD5A
:1009600010B5FFF768FEFFF7B8FEFFF79FFFFFF730
:10097000CBFFFFF754FFFFF776FF62B610BDC2064C
:10098000D20E01219140024A116070471CED00E037
:1009900000E100E040000040100007A500000A57F9
:1009A0000017C7000017E700006CDC02740000208D
:1009B0007800002001030102010201020100010090
:1009C000C01F0040005015000010004095AA55556A
:1009D0000011004000102211555515000012004072
:1009E0000013004055550000001400400015004061
:1009F0006401002000410040400D03000048004019
:100A000080BB0000002100400022004010B51446C9
:100A100002462F3A130006F066FD0805192D4155D0
:100A20006B8195A9012903D0032901D0022906D1A0
:100A3000FA4AD26920231A43F84BDA6105E0F74AF3
:100A4000126A20231A43F54B1A6290E0012903D061
:100A5000032901D0022906D1F04AD26910231A4392
:100A6000EE4BDA6105E0ED4A126A10231A43EB4BB4
:100A70001A627CE0012903D0032901D0022906D1A2
:100A8000E64AD26908231A43E44BDA6105E0E34AF7
:100A9000126A08231A43E14B1A6268E0012903D065
:100AA000032901D0022906D1DC4AD26904231A4362
:100AB000DA4BDA6105E0D94A126A04231A43D74BAC
:100AC0001A6254E0012903D0032901D0022907D179
:100AD000D24AD26901235B021A43D04BDA6106E0A5
:100AE000CE4A126A01235B021A43CC4B1A623EE0E3
:100AF000012903D0032901D0022907D1C74AD269AD
:100B0000FF2301331A43C54BDA6106E0C34A126A78
:100B1000FF2301331A43C14B1A6228E0012903D095
:100B2000032901D0022906D1BC4AD26980231A4385
:100B3000BA4BDA6105E0B94A126A80231A43B74B0F
:100B40001A6214E0012903D0032901D0022906D139
:100B5000B24AD26940231A43B04BDA6105E0AF4A8A
:100B6000126A40231A43AD4B1A6200E000BF00BF77
:100B700010BD70B506460C461546304611380300C8
:100B800006F0B1FC0A06203A546E88A2BCD6F2F0F8
:100B9000012C03D0032C01D0022C0BD1E807C00F8D
:100BA00000280ED09D48C0690121890208439B4955
:100BB000C86106E09948006A012189020843974903
:100BC0000862F1E0012C03D0032C01D0022C0BD1E0
:100BD000E807C00F00280ED09048C06901218902A3
:100BE00008438E49C86106E08C48006A01218902E9
:100BF00008438A490862D7E0012C03D0032C01D0B6
:100C0000022C0BD10220284000280ED08348C06956
:100C10000121890208438149C86106E07F48006AD2
:100C20000121890208437D490862BDE0012C03D0FF
:100C3000032C01D0022C0BD10220284000280ED01A
:100C40007648C0690121890208437449C86106E0F9
:100C50007248006A01218902084370490862A3E0D2
:100C6000012C03D0032C01D0022C0BD104202840EE
:100C700000280ED06948C0690121890208436749EC
:100C8000C86106E06548006A01218902084363499A
:100C9000086289E0012C03D0032C01D0022C0BD177
:100CA0000420284000280ED05C48C0690121890238
:100CB00008435A49C86106E05848006A0121890280
:100CC0000843564908626FE0012C03D0032C01D081
:100CD000022C0BD10820284000280ED04F48C069B4
:100CE0000121890208434D49C86106E04B48006A6A
:100CF0000121890208434949086255E0012C03D0CB
:100D0000032C01D0022C0BD10820284000280ED043
:100D10004248C0690121890208434049C86106E090
:100D20003E48006A0121890208433C4908623BE0D1
:100D3000012C03D0032C01D0022C0BD11020284011
:100D400000280ED03548C069012189020843334983
:100D5000C86106E03148006A0121890208432F4931
:100D6000086221E01AE0FFE7012C03D0032C01D038
:100D7000022C0BD11020284000280ED02748C06933
:100D80000121890208432549C86106E02348006A19
:100D90000121890208432149086205E02A462146CB
:100DA0003046FFF733FE00BF00BF70BD70B506468A
:100DB0000C461546F01F030006F095FB06887004EC
:100DC0001E3C56A0012C03D0032C01D0022C0BD1C9
:100DD0008020284000280ED01148C0690121090355
:100DE00008430F49C86106E00D48006A0121090364
:100DF00008430B49086287E0012C03D0032C01D083
:100E0000022C0FD180202840002812D00448C0694D
:100E10000121490308430249C8610AE00012004069
:100E200000110040FC48006A012149030843FA49C7
:100E3000086269E0012C03D0032C01D0022C0BD1F5
:100E40008020284000280ED0F348C0690121890382
:100E50000843F149C86106E0EF48006A01218903AF
:100E60000843ED4908624FE0012C03D0032C01D068
:100E7000022C0BD18020284000280ED0E648C06903
:100E80000121C9030843E449C86106E0E248006A59
:100E90000121C9030843E049086235E0012C03D071
:100EA000032C01D0022C0AD18020284000280CD02D
:100EB000DA48C06901210843D849C86105E0D7482C
:100EC000006A01210843D54908621DE0012C03D0C6
:100ED000032C01D0022C0AD18020284000280CD0FD
:100EE000CE48C06902210843CC49C86105E0CB481F
:100EF000006A02210843C949086205E02A462146E2
:100F00003046FFF736FE00BF00BF70BD70B5064625
:100F10000C461546272E56D006DC042E79D0062E18
:100F200078D01C2E77D106E0282E75D02B2E74D0C9
:100F30002C2EF7D115E1012C10D1E807C00F0028A5
:100F400040D0B548C069A1020843B349C86108460A
:100F5000C069C9140843B049C86133E0032C11D1FA
:100F6000E807C00F00282DD0AB48C06901218902D5
:100F70000843A949C8610846006AC9140843A6493C
:100F800008621FE0022C10D1E807C00F002819D01A
:100F9000A148006A610208439F4908620846C06987
:100FA000C91408439C49C8610CE09B48006A0121B0
:100FB00089020843984908620846006AC914084330
:100FC00095490862B1E1012C10D102202840002887
:100FD00044D09148C069A10208438F49C8610846BE
:100FE000C069C91408438C49C86137E0032C15D186
:100FF00002202840002831D08948C0698021084358
:101000008749C8618448006A01210843824908620F
:1010100024E03CE1EDE082E121E05AE0022C10D135
:1010200002202840002819D07B48006A610208434A
:10103000794908620846C069C91408437649C861FD
:101040000CE07548006A0121890208437249086270
:101050000846006AC91408436F49086265E1012C1B
:1010600010D104202840002832D06B48C069A1026A
:1010700008436949C8610846C069C91408436649FC
:10108000C86125E0032C11D10420284000281FD07E
:101090006148C0690121890208435F49C861084667
:1010A000006AC91408435C49086211E0022C0FD1A0
:1010B0000420284000280BD05748006A61020843EA
:1010C000554908620846C069C91408435249C861B5
:1010D0002BE1012C10D108202840002840D04E4898
:1010E000C069A10208434C49C8610846C069C914D7
:1010F00008434949C86133E0032C11D10820284036
:1011000000282DD04448C069012189020843424982
:10111000C8610846006AC91408433F4908621FE0D5
:10112000022C10D108202840002819D03A48006A23
:1011300061020843384908620846C069C914084377
:101140003549C8610CE03448006A0121890208432E
:10115000314908620846006AC91408432E490862EA
:10116000E3E0012C10D110202840002840D02A486C
:10117000C069A10208432849C8610846C069C9146A
:1011800008432549C86133E0032C11D110202840C1
:1011900000282DD02048C0690121890208431E493A
:1011A000C8610846006AC91408431B4908621FE069
:1011B000022C10D110202840002819D01648006AAF
:1011C00061020843144908620846C069C91408430B
:1011D0001149C8610CE01048006A012189020843E6
:1011E0000D4908620846006AC91408430A490862A2
:1011F0009BE0012C16D120202840002846D006482C
:10120000C069A10208430449C8610846C069C914FD
:1012100008430149C86139E0001100400012004054
:1012200000100040032C11D12020284000282DD090
:10123000FD48C069012189020843FB49C86108468D
:10124000006AC9140843F84908621FE0022C10D153
:1012500020202840002819D0F348006A6102084382
:10126000F14908620846C069C9140843EE49C861DB
:101270000CE0ED48006A012189020843EA4908624E
:101280000846006AC9140843E74908624DE0012C8A
:1012900010D140202840002840D0E348C069A10276
:1012A0000843E149C8610846C069C9140843DE49DA
:1012B000C86133E0032C11D14020284000282DD0F4
:1012C000D948C069012189020843D749C861084645
:1012D000006AC9140843D44908621FE0022C10D1E7
:1012E00040202840002819D0CF48006A61020843F6
:1012F000CD4908620846C069C9140843CA49C86193
:101300000CE0C948006A012189020843C649086205
:101310000846006AC9140843C349086205E02A4622
:1013200021463046FFF742FD00BF00BF70BD70B5DB
:1013300006460C46154630461F38030006F0D3F823
:101340000C074FF6F697DFF5F4F6F6F3F2F6012CFC
:1013500010D1E807C00F002840D0B348C06921026F
:101360000843B149C8610846C06904210843AE4931
:10137000C86133E0032C11D1E807C00F00282DD03D
:10138000A948006AFF2101310843A74908620846BD
:10139000C06904210843A449C8611FE0022C10D190
:1013A000E807C00F002819D09F48C069E101084331
:1013B0009D49C8610846006A042108439A490862A9
:1013C0000CE09948006AFF21013108439649086200
:1013D0000846006A042108439349086204E2012C8C
:1013E00010D102202840002840D08F48C069210237
:1013F00008438D49C8610846C069042108438A49E9
:10140000C86133E0032C11D10220284000282DD0E0
:101410008548006AFF210131084383490862084674
:10142000C069042108438049C8611FE0022C10D123
:1014300002202840002819D07B48C069E1010843F8
:101440007949C8610846006A042108437649086260
:101450000CE07548006AFF210131084372490862B7
:101460000846006A042108436F490862BCE1012C68
:1014700010D104202840002840D06B48C0692102C8
:1014800008436949C8610846C069042108436649A0
:10149000C86133E0032C11D10420284000282DD04E
:1014A0006148006AFF21013108435F49086208462C
:1014B000C069042108435C49C8611FE0022C10D1B7
:1014C00004202840002819D05748C069E10108438A
:1014D0005549C8610846006A042108435249086218
:1014E0000CE05148006AFF21013108434E4908626F
:1014F0000846006A042108434B49086274E1012C44
:1015000015D108202840002845D04748C06921024D
:1015100008434549C8610846C06904210843424957
:10152000C86138E012E1C9E080E035E056E1032C03
:1015300011D10820284000282DD03B48006AFF2107
:1015400001310843384908620846C069042108434C
:101550003549C8611FE0022C10D10820284000281E
:1015600019D03148C069E10108432F49C8610846D4
:10157000006A042108432C4908620CE02A48006AEA
:10158000FF2101310843284908620846006A042106
:1015900008432549086227E1012C10D1102028407A
:1015A000002840D02048C069210208431E49C86174
:1015B0000846C069042108431B49C86133E0032C75
:1015C00011D11020284000282DD01748006AFF2193
:1015D00001310843144908620846C06904210843E0
:1015E0001149C8611FE0022C10D1102028400028AA
:1015F00019D00D48C069E10108430B49C86108468C
:10160000006A04210843084908620CE00648006AA1
:10161000FF2101310843044908620846006A042199
:10162000084301490862DFE000110040012C10D19D
:1016300020202840002840D0FE48C06921020843ED
:10164000FC49C8610846C06904210843F949C861DA
:1016500033E0032C11D12020284000282DD0F5485C
:10166000006AFF2101310843F24908620846C06957
:1016700004210843EF49C8611FE0022C10D120204B
:101680002840002819D0EB48C069E1010843E94926
:10169000C8610846006A04210843E64908620CE074
:1016A000E448006AFF2101310843E2490862084624
:1016B000006A04210843DF49086295E0012C10D13B
:1016C00040202840002840D0DA48C0692102084361
:1016D000D849C8610846C06904210843D549C86192
:1016E00033E0032C11D14020284000282DD0D148D0
:1016F000006AFF2101310843CE4908620846C069EB
:1017000004210843CB49C8611FE0022C10D14020BE
:101710002840002819D0C748C069E1010843C549DD
:10172000C8610846006A04210843C24908620CE007
:10173000C048006AFF2101310843BE4908620846DB
:10174000006A04210843BB4908624DE0012C10D116
:1017500080202840002840D0B648C06921020843B4
:10176000B449C8610846C06904210843B149C86149
:1017700033E0032C11D18020284000282DD0AD4823
:10178000006AFF2101310843AA4908620846C0697E
:1017900004210843A749C8611FE0022C10D1802012
:1017A0002840002819D0A348C069E1010843A14995
:1017B000C8610846006A042108439E4908620CE09B
:1017C0009C48006AFF21013108439A490862084693
:1017D000006A042108439749086205E02A46214629
:1017E0003046FFF793FB00BF00BF70BD70B50646E3
:1017F0000C4615461D2E7CD008DC022E53D0032E3D
:1018000078D0052E09D01B2E75D1FAE11E2E73D08B
:10181000212E72D0222EF7D1ADE1012C10D1E80794
:10182000C00F00283ED08448C06980210843824907
:10183000C8618048C069012108437E49C86131E020
:10184000032C10D1E807C00F00282BD07A48C069BC
:10185000802108437849C8617648006A012108431D
:10186000744908621EE0022C10D1E807C00F00285E
:1018700018D07148006A802108436F4908626D489A
:10188000C069012108436B49C8610BE06A48006ADE
:1018900080210843684908626648006A01210843BC
:1018A00064490862F9E1012C10D102202840002887
:1018B00043D06148C069802108435F49C8615D48E1
:1018C000C069012108435B49C86136E0032C15D18A
:1018D00002202840002830D05748C06980210843A2
:1018E0005549C8615348006A0121084351490862BB
:1018F00023E069E022E0CAE1B1E0F6E0022C10D179
:1019000002202840002818D04B48006A8021084354
:10191000494908624748C069012108434549C861EF
:101920000BE04548006A802108434349086241486A
:10193000006A012108433F490862AEE1012C10D141
:101940000420284000283ED03B48C069802108433D
:101950003949C8613748C069012108433549C86120
:1019600031E0032C10D10420284000282BD032482D
:10197000C069802108433049C8612E48006A0121AE
:1019800008432C4908621EE0022C10D10420284094
:10199000002818D02848006A802108432649086298
:1019A0002448C069012108432249C8610BE022484C
:1019B000006A80210843204908621E48006A01210C
:1019C00008431C49086268E1012C10D10820284016
:1019D000002843D01848C069802108431649C861CF
:1019E0001448C069012108431249C86136E0032C3C
:1019F00010D108202840002830D00F48C06980212D
:101A000008430D49C8610B48006A01210843094990
:101A1000086223E0022C15D10820284000281DD0A0
:101A20000548006A80210843034908620148C069EB
:101A3000012103E000110040001000400843FB4971
:101A4000C8610BE0FA48006A80210843F84908623F
:101A5000F648006A01210843F44908621DE1012C9F
:101A600010D11020284000283ED0F148C0698021C4
:101A70000843EF49C861ED48C06901210843EB49BB
:101A8000C86131E0032C10D11020284000282BD051
:101A9000E748C06980210843E549C861E348006A16
:101AA00001210843E14908621EE0022C10D11020F8
:101AB0002840002818D0DE48006A80210843DC490D
:101AC0000862DA48C06901210843D849C8610BE0BF
:101AD000D748006A80210843D5490862D348006A84
:101AE00001210843D1490862D7E0012C10D1202000
:101AF000284000283ED0CE48C06980210843CC4908
:101B0000C861CA48C06901210843C849C86131E0B9
:101B1000032C10D12020284000282BD0C448C069B5
:101B200080210843C249C861C048006A01210843B6
:101B3000BE4908621EE0022C10D120202840002857
:101B400018D0BB48006A80210843B9490862B748E9
:101B5000C06901210843B549C8610BE0B448006A77
:101B600080210843B2490862B048006A0121084355
:101B7000AE49086291E0012C10D140202840002895
:101B80003ED0AB48C06980210843A949C861A74835
:101B9000C06901210843A549C86131E0032C10D177
:101BA0004020284000282BD0A148C069802108434C
:101BB0009F49C8619D48006A012108439B4908620A
:101BC0001EE0022C10D140202840002818D0984850
:101BD000006A80210843964908629448C06901213F
:101BE00008439249C8610BE09148006A802108438C
:101BF0008F4908628D48006A012108438B490862B9
:101C00004BE0012C10D18020284000283ED088488D
:101C1000C069802108438649C8618448C0690121A0
:101C200008438249C86131E0032C10D1802028404C
:101C300000282BD07E48C069802108437C49C861B8
:101C40007A48006A01210843784908621EE0022CA4
:101C500010D180202840002818D07548006A8021C3
:101C60000843734908627148C069012108436F49FC
:101C7000C8610BE06E48006A802108436C49086225
:101C80006A48006A012108436849086205E02A465B
:101C900021463046FFF74BFB00BF00BF70BD70B55B
:101CA00004460D460026634886693246294620468A
:101CB000FFF79CFDFF2C1AD1012D18D15C48C0699B
:101CC000C02108435A49C8615848C0695A49084365
:101CD0005649C8615948C069594908435749C861BC
:101CE0005448C069FF2108435249C8611BE0FF2CDA
:101CF00019D1002D17D14E48006AC02108434C4924
:101D000008624A48006A4C490843484908624B48FF
:101D1000006A4B490843494908624648006AFF2166
:101D200008434449086270BD01293DD1102824D0E0
:101D300006DC0D2809D00E280FD00F2833D114E06F
:101D40002D2822D02E282ED126E0384AD269012310
:101D50001B031A43354BDA6125E0344AD26901236B
:101D60005B031A43314BDA611DE0304AD26901232B
:101D70009B031A432D4BDA6115E02C4AD2690123EB
:101D8000DB031A43294BDA610DE02C4AD2690123A7
:101D90001A432A4BDA6106E0284AD26902231A4321
:101DA000264BDA6100BF3FE000293DD1102824D046
:101DB00006DC0D2809D00E280FD00F2833D114E0EF
:101DC0002D2822D02E282ED126E0184A126A01236F
:101DD0001B031A43154B1A6225E0144A126A0123A9
:101DE0005B031A43114B1A621DE0104A126A012369
:101DF0009B031A430D4B1A6215E00C4A126A012329
:101E0000DB031A43094B1A620DE00C4A126A0123E4
:101E10001A430A4B1A6206E0084A126A02231A435E
:101E2000064B1A6200BF00BF70470000001100405F
:101E3000001000400014004007FF000000120040A6
:101E4000FF070000F0B506460D4614460027284857
:101E50008769012C0FD1A80026490858384000286E
:101E600004D001213046FFF75FFF0AE00021304631
:101E7000FFF75AFF05E0002C03D100213046FFF7A1
:101E800053FFF0BD1C48006A802108431A490862CC
:101E90001A48006A1A490843184908621948006A32
:101EA0001949084317490862704700B51048006A8D
:101EB0001649096808430E490862FFF7E3FF144812
:101EC000017801208840114908600948C069096803
:101ED00008430749C8610E480078401C0C49087047
:101EE00008460078072801DD0020087000BD0000CA
:101EF00000140040080000200010004000110040C5
:101F000005FD000000120040FF0700003400002023
:101F10003000002000200021594A9268D0B2C1064A
:101F2000C90E022911D1574A1278092A0ADA554AEC
:101F30001278521C534B1A70534A1B78D25C504B88
:101F40001A6002E000224F4B1A70704710B54F4CD8
:101F5000204603F09EFF08210840002820D00120E1
:101F60004B4908704B4908704B48007801214840A4
:101F70004949087008460078012806D14748C069D9
:101F8000611508434549C86106E04448006A0121DB
:101F900049020843414908620821204603F07EFFB8
:101FA000204603F076FF04210840002802D0204696
:101FB00003F074FF10BD10B5394C204603F069FFE3
:101FC00008210840002811D0012036490870364801
:101FD0000078401C3449087008460078642801DB0A
:101FE000002008700821204603F058FF204603F027
:101FF00050FF04210840002802D0204603F04EFF85
:1020000010BD00B5FFF786FF284800780121484041
:102010002649087008460078012807D11F48C06982
:102020000121890208431D49C86106E01B48006A76
:102030000121890208431949086200BD704700BFA9
:10204000FEE77047704770477047704770477047AA
:1020500070477047704770477047704770477047C8
:1020600070477047704770477047704770477047B8
:10207000704770477047704770477047704700005F
:10208000004100404A00002059010020002100408A
:102090003F0000203D0000203800002000100040DC
:1020A00000220040400000204200002039000020B3
:1020B00010B5014600200122FE4B1B78012B00D1F8
:1020C00012E0FC4B5B78012B01D101200CE0F94BB5
:1020D0009B78012B01D1022006E0F64BDB78012B27
:1020E00001D1032000E00022012A51D10C46093C15
:1020F000230005F0F8F90A060C131A21282F363DA3
:10210000444B0023EC4C2354EA4C23543FE001237E
:10211000E94C23540023E74C235438E00223E64CD7
:1021200023540023E34C235431E00323E24C235493
:102130000023E04C23542AE00423DF4C23540023E3
:10214000DC4C235423E00523DB4C23540023D94CDF
:1021500023541CE00623D84C23540023D54C23548D
:1021600015E00723D44C23540023D24C23540EE013
:102170000823D14C23540023CE4C235407E00923D9
:10218000CD4C23540023CB4C235400E000BF00E08F
:10219000002210BD10B5C9480078002872D1C84887
:1021A000007813283CD007DC801E030005F09BF963
:1021B000050C202A163475001438030005F093F935
:1021C000053A444E63586D00BE48007801214840EE
:1021D000BC4908700120B949087063E0BA4800782A
:1021E00001214840B84908700120B449087059E0FD
:1021F000B648007801214840B44908700120AF4931
:1022000008704FE0B248007801214840B04908709A
:102210000120AA49087045E00120A849087041E062
:10222000AC48007801214840AA4908700120A34920
:10223000087037E0A748407801214840A549487018
:1022400001209E4908702DE004219A4803F0D8FE31
:102250000120984908709949087023E004219548A5
:1022600003F0CEFE0120934948709449087019E0AC
:102270000421904803F0C4FE01208E49C8708F49A4
:1022800008700FE00FE004218A4803F0B9FE012036
:10229000884988708949087004E089480078FFF708
:1022A00007FF00BF00BF10BD30B504461D46782CA7
:1022B00047D14878002828D10878082819D008DCA8
:1022C00000280FD001280ED002280ED004281AD1E1
:1022D0000DE010280FD020280FD040280FD08028E4
:1022E00011D10EE010E014250EE006250CE00425C7
:1022F0000AE0132508E0032506E0162504E005257D
:1023000002E0022500E000BF00BF087800285CD191
:102310004878030005F0E7F809060709130F1313BF
:10232000131113000CE015250AE0022A01D119252A
:1023300000E0012504E0172502E0182500E000BFB9
:1023400043E04878002828D10878082819D008DC0C
:1023500000280FD001280ED002280ED004281AD150
:102360000DE010280FD020280FD040280FD0802853
:1023700011D10EE010E012250EE011250CE0102521
:102380000AE00F2508E00E2506E00D2504E00C25E7
:1023900002E00B2500E000BF00BF0878002814D140
:1023A0004878030005F09FF8090607090F0B0F0F87
:1023B0000F0D0F0008E00A2506E0092504E00725B7
:1023C00002E0082500E000BF00BF284630BD30B560
:1023D00099B00546402109A803F014FE002400200E
:1023E0000890782D01D1012400E0002401951021EE
:1023F00008A801710021417109A8029001200390F1
:10240000002201A9344802F0A5FA3E2109A803F0F0
:10241000F9FD3D21314803F0F3FD01952F4805906A
:1024200001200690002201A92B4802F0A2FA019592
:10243000112108A801710021417109A80290012011
:102440000390002201A9244802F084FA3E2109A841
:1024500003F0D8FD3D21224803F0D2FD019520482C
:10246000059001200690002201A91B4802F081FA84
:102470001A4800781B4908701948007848701748B6
:10248000017808A801701648017808A8417013481F
:1024900000781549087012480078144908700F48F0
:1024A0000078002843D10E48007800283FD110481A
:1024B00000781FE04B00002055000020490000205C
:1024C000480000204F000020500000205100002054
:1024D0005400002052000020004800409C000020D2
:1024E000DB0000201A010020590000205A000020C3
:1024F0005B00002000280DD1FE484078002809D15B
:10250000FC488078002805D1FA48C078002801D11D
:10251000F94908706000F749085C00286CD1600038
:1025200040184078002867D1F449085564E0F44821
:102530000078002825D0F3480078002821D06000DA
:10254000EC49085CEE490978884255D16000E949B8
:1025500040184078EB49097888424DD1E748005D42
:10256000401CE64908550846005D322844DBE24835
:102570000378022208A92846FFF796FEDE49087074
:102580003AE06000DB49085CDD490978884233D1D4
:102590006000D84940184078DA49097888422BD140
:1025A000D648005D401CD54908550846005D052801
:1025B0000DDB0846005D322809DACF480378012296
:1025C00008A92846FFF770FECB49087014E0CB48F5
:1025D000005D322809DBC8480378022208A9284692
:1025E000FFF762FEC449087006E0C448005DFA289F
:1025F00002DB0020C1490855C14800786100BD4A8E
:102600005054C0480078610089184870BA48007872
:10261000002801D1BC49087019B030BD10B598B080
:102620000446402108A803F0EDFC01940F2108A8FE
:1026300001703921417002903F200390002201A9CE
:10264000B24802F087F93E2108A803F0DBFC0194B0
:10265000162108A801700021417033218170C170DA
:10266000017141718171C1710321017202900920D0
:102670000390002201A9A54802F06CF93E2108A8A8
:1026800003F0C0FC0194022108A8017010214170E0
:10269000029002200390002201A99C4802F05AF9FE
:1026A0003E2108A803F0AEFC0194032108A80170A4
:1026B00010214170029002200390002201A993484A
:1026C00002F048F93E2108A803F09CFC0194042183
:1026D00008A801701021417002900220039000228E
:1026E00001A98A4802F036F93E2108A803F08AFCC5
:1026F0000194052108A80170102141700290022068
:102700000390002201A9814802F024F93E2108A883
:1027100003F078FC0194062108A801701021417093
:10272000029002200390002201A9784802F012F9D9
:102730003E2108A803F066FC0194072108A8017057
:1027400010214170029002200390002201A96F48DD
:1027500002F000F93E2108A803F054FC019408217E
:1027600008A80170102141700290022003900022FD
:1027700001A9664802F0EEF83E2108A803F042FCE9
:102780000194092108A801701021417002900220D3
:102790000390002201A95D4802F0DCF83E2108A860
:1027A00003F030FC01940A2108A801701021417047
:1027B000029002200390002201A9544802F0CAF8B6
:1027C0003E2108A803F01EFC01940B2108A801700B
:1027D00010214170029002200390002201A94B4871
:1027E00002F0B8F83E2108A803F00CFC01940C217B
:1027F00008A801701021417002900220039000226D
:1028000001A9424802F0A6F83E2108A803F0FAFB0D
:1028100001940D2108A8017010214170029002203E
:102820000390002201A9394802F094F83E2108A83B
:1028300003F0E8FB01940E2108A801700521417006
:10284000029002200390002201A9304802F082F891
:102850003E2108A803F0D6FB0194122108A80170BC
:1028600000214170029002200390002201A9274814
:1028700002F070F83E2108A803F0C4FB0194132174
:1028800008A80170002141700290022003900022EC
:1028900001A91E4802F05EF83E2108A803F0B2FB31
:1028A0000194142108A801700021417002900220B7
:1028B0000390002201A9154802F04CF83E2108A817
:1028C00003F0A0FB0194152108A8017000214170BC
:1028D000029002200390002201A90C4802F03AF86D
:1028E0003E2108A803F08EFB0194292108A801705D
:1028F00020210DE05B000020480000205F00002048
:102900009C000020DB00002049000020004800401F
:102910004170029002200390002201A9314802F088
:1029200019F83E2108A803F06DFB01942A2108A89C
:10293000017043214170029002200390002201A9FE
:10294000284802F007F83E2108A803F05BFB019439
:102950002B2108A8017043214170029002200390AE
:10296000002201A91F4801F0F5FF3E2108A803F04D
:1029700049FB01942C2108A80170092141700290A3
:1029800002200390002201A9164801F0E3FF3E2136
:1029900008A803F037FB01945B2108A80170B0215F
:1029A0004170029002200390002201A90D4801F01D
:1029B000D1FF3E2108A803F025FB01940F2108A8B0
:1029C000017031214170029002200390002201A980
:1029D000044801F0BFFF3E2108A803F013FB18B024
:1029E00010BD0000004800401349144A91600A21BC
:1029F0009181D181AA21104A117000215170117268
:102A0000BB215172AA210E4A11700021517011721E
:102A1000BB21517200280BD10A49097800290AD13B
:102A200011460978084A11600121064A117002E036
:102A30000021044A117070477401002064010020D5
:102A400059010020630000200041004010B5FE48FD
:102A50000078012804D103210520FFF720F903E0C5
:102A600002210520FFF71BF910BD10B5F7480078CB
:102A7000012804D103210220FFF711F903E002210C
:102A80000846FFF70CF910BD10B5F1480078012891
:102A900004D103210846FFF702F903E002210320D5
:102AA000FFF7FDF810BD10B5EA480078012814D1F1
:102AB00003211B20FFF7F3F803211D20FFF7EFF898
:102AC00003211E20FFF7EBF803212120FFF7E7F891
:102AD00003212220FFF7E3F817E0DE480078002802
:102AE00013D102211B20FFF7DAF802211D20FFF786
:102AF000D6F802211E20FFF7D2F802212120FFF78D
:102B0000CEF802212220FFF7CAF8D24840780128E7
:102B100014D103211C20FFF7C2F803212720FFF75F
:102B2000BEF803212820FFF7BAF803212B20FFF776
:102B3000B6F803212C20FFF7B2F817E0C54840781B
:102B4000002813D102211C20FFF7A9F80221272019
:102B5000FFF7A5F802212820FFF7A1F802212B207A
:102B6000FFF79DF802212C20FFF799F810BD10B552
:102B7000B948407800280BDCB7480078002807DC0B
:102B8000B5488078002803DCB348C078002804DD0D
:102B900003210620FFF783F803E002210620FFF758
:102BA0007EF801210720FFF77AF801210820FFF7BE
:102BB00076F810BD7047704710B501211120FFF75E
:102BC0006EF801211220FFF76AF801211320FFF7A8
:102BD00066F801211420FFF762F801211520FFF7A4
:102BE0005EF801211620FFF75AF801211720FFF7A0
:102BF00056F801211820FFF752F801211920FFF79C
:102C00004EF801211A20FFF74AF810BD10B593487D
:102C1000007801287ED192480068401C90490860E5
:102C200008460068FA280DD38E48007801214840F4
:102C30008C49087000208A4908608B480078401C45
:102C40008949087088480078062806DB01208749F2
:102C5000087000208449087002E000208349087051
:102C60008048007801282AD17B48017801220D2074
:102C7000FFF7E8F803211F20FFF711F803212020B8
:102C8000FFF70DF801212F20FFF709F8012130206F
:102C9000FFF705F86F48007801283AD10321232077
:102CA000FEF7FDFF03212420FEF7F9FF012131206B
:102CB000FEF7F5FF01213220FEF7F1FF29E066481B
:102CC000017800220D20FFF7BDF802211F20FEF73A
:102CD000E6FF02212020FEF7E2FF00212F20FEF771
:102CE000DEFF00213020FEF7DAFF5A480078012885
:102CF0000FD102212320FEF7D2FF02212420FEF76C
:102D0000CEFF00213120FEF7CAFF00213220FEF75E
:102D1000C6FF00E00DE055480078012808D10020EA
:102D20004E4908704C48017801220D20FFF78AF8BF
:102D3000DCE14A48407801287ED149484068401C7F
:102D40004749486008464068FA280DD3454840780E
:102D500001214840434948700020414948604248A9
:102D60004078401C404948703F484078062806DBC0
:102D700001203E49487000203B49487002E0002095
:102D80003A4948703748407801282AD1324841787A
:102D900001220E20FFF756F803212320FEF77FFFC4
:102DA00003212420FEF77BFF01213120FEF777FF6E
:102DB00001213220FEF773FF2648007801283AD11E
:102DC00003211F20FEF76BFF03212020FEF767FF82
:102DD00001212F20FEF763FF01213020FEF75FFF66
:102DE00029E01D48417800220E20FFF72BF8022130
:102DF0002320FEF754FF02212420FEF750FF00217C
:102E00003120FEF74CFF00213220FEF748FF114829
:102E1000007801280FD102211F20FEF740FF022178
:102E20002020FEF73CFF00212F20FEF738FF002175
:102E30003020FEF734FF00E022E00C484078012803
:102E40001DD10020054913E0500000204F00002054
:102E50005100002052000020550000204B000020AF
:102E60008001002065000020690000206D00002026
:102E70004870FD48417801220E20FEF7E3FF35E15E
:102E8000FA48807801287CD1F9488068401CF849CC
:102E9000886008468068FA280DD3F64880780121BA
:102EA0004840F44988700020F1498860F2488078F1
:102EB000401CF1498870F0488078062806DB012024
:102EC000EE4988700020EC49887002E00020EB4950
:102ED0008870E848807801282AD1E3488178012267
:102EE0000F20FEF7AFFF03212520FEF7D8FE0321B8
:102EF0002620FEF7D4FE01213320FEF7D0FE01216B
:102F00003420FEF7CCFEDE48407801283CD1032176
:102F10002B20FEF7C4FE03212C20FEF7C0FE01216A
:102F20003520FEF7BCFE01213620FEF7B8FE2BE06F
:102F3000CD48817800220F20FEF784FF0221252052
:102F4000FEF7ADFE02212620FEF7A9FE0021332068
:102F5000FEF7A5FE00213420FEF7A1FEC848407808
:102F6000012811D102212B20FEF799FE02212C20ED
:102F7000FEF795FE00213520FEF791FE0021362058
:102F800000E00FE0FEF78BFEBC488078012808D1F6
:102F90000020B6498870B448817801220F20FEF7DE
:102FA00051FFA3E0B148C07801287CD1B048C06887
:102FB000401CAF49C8600846C068FA280DD3AD4828
:102FC000C07801214840AB49C8700020A849C860BA
:102FD000A948C078401CA849C870A748C0780628EE
:102FE00006DB0120A549C8700020A349C87002E093
:102FF0000020A249C8709F48C07801282AD19A4869
:10300000C17801221020FEF71DFF03212920FEF7C1
:1030100046FE03212A20FEF742FE01213520FEF75D
:103020003EFE01213620FEF73AFE95484078012801
:103030003CD103212720FEF732FE03212820FEF792
:103040002EFE01213320FEF72AFE01213420FEF757
:1030500026FE2BE08448C17800221020FEF7F2FE05
:1030600002212920FEF71BFE02212A20FEF717FE6F
:1030700000213520FEF713FE00213620FEF70FFE5B
:103080007F484078012811D102212720FEF707FE52
:1030900002212820FEF703FE00213320FEF7FFFD6A
:1030A0000021342000E00FE0FEF7F9FD7348C078FE
:1030B00001281BD100206D49C8706B48C1780122DE
:1030C0001020FEF7BFFE11E0694800210160416059
:1030D0008160C1601021674802F092FF10216648AC
:1030E00002F08EFF1021654802F08AFF5F484078A9
:1030F000012830D05C484078002816DD5A484178D5
:1031000001220E20FEF79EFE03212320FEF7C7FDBD
:1031100003212420FEF7C3FD01213120FEF7BFFD6E
:1031200001213220FEF7BBFD15E04F484178002217
:103130000E20FEF787FE02212320FEF7B0FD0221BC
:103140002420FEF7ACFD00213120FEF7A8FD002170
:103150003220FEF7A4FD45480078012830D04248CF
:103160000078002816DD4048017801220D20FEF786
:1031700069FE03211F20FEF792FD03212020FEF7A8
:103180008EFD01212F20FEF78AFD01213020FEF760
:1031900086FD15E03448017800220D20FEF752FE2E
:1031A00002211F20FEF77BFD02212020FEF777FD84
:1031B00000212F20FEF773FD00213020FEF76FFD68
:1031C0002A48C078012830D02748C078002816DD6A
:1031D0002548C17801221020FEF734FE0321292062
:1031E000FEF75DFD03212A20FEF759FD0121352060
:1031F000FEF755FD01213620FEF751FD15E01A4876
:10320000C17800221020FEF71DFE02212920FEF7C2
:1032100046FD02212A20FEF742FD00213520FEF75F
:103220003EFD00213620FEF73AFD10488078012847
:103230003ED00D488078002824DD0B48817801229B
:103240000F20FEF7FFFD03212520FEF728FD0321B7
:103250002620FEF724FD01213320FEF720FD012169
:103260003420FEF71CFD23E0550000204B00002019
:103270008001002065000020690000206D00002012
:10328000520000201D48817800220F20FEF7DAFD51
:1032900002212520FEF703FD02212620FEF7FFFC78
:1032A00000213320FEF7FBFC00213420FEF7F7FC61
:1032B00010BD10B512480078012804D10321042064
:1032C000FEF7EDFC03E002210420FEF7E8FC10BD50
:1032D00010B5FFF7BBFBFFF7C8FBFFF7D5FBFFF708
:1032E000E2FBFFF793FCFFF742FCFFF763FCFFF7FD
:1032F00062FCFFF761FCFFF7DCFF10BD550000200A
:103300005400002008488047084880470848004784
:10331000FEE7FEE7FEE7FEE7FEE7FEE705480649B3
:10332000064A074B70470000513300004533000048
:10333000C100000000030020000B00200007002057
:10334000000700200F4810490860104908607047C6
:1033500072B60F480F4908600F4800680F490840CF
:103360000F4940180C4908600E48486081200A49FE
:10337000C0314860282048600B480863002048603E
:103380007047000020A10700740000207800002092
:10339000A095695A001A004040000040FFF000006C
:1033A000000807A500000A570003587810B5024628
:1033B000A523FE4C63605A236360FC4B803B186876
:1033C000B12424020346A3431846002A06D0012A4A
:1033D00008D0022A0AD0032A10D10BE00123DB0314
:1033E00018430BE009231B03184307E005235B0385
:1033F000184303E00B231B03184300BF00BF012940
:1034000002D10B02184304E0FF2401340346A34316
:103410001846E64B803B18600023E44C636010BD07
:1034200038B5044602221146E14801F014FF032298
:103430000221DF4801F038FF00220221DC4801F0C0
:103440005DFF02220321DA4801F005FF0322114645
:10345000D74801F029FF00220321D54801F04EFF93
:10346000D248C038006800900F21090300988843B3
:1034700000902003009908430090CE49009808432B
:10348000CA49C039086000210220FFF78FFF38BD0C
:103490000EB5C649C03989680122D2021143C34A18
:1034A000C03A91600021009100BFC049C0398968CD
:1034B000FF220132114001910099491C00916A4696
:1034C0009188002903D10099491C0029EDD10021E0
:1034D000029103E000BF0299491C02910122D2022D
:1034E00002999142F6D3B149C0398968D21011408E
:1034F000002901D0012000E000200EBD08B5AB4935
:10350000C039096800910F2212020099914300917D
:103510000102009A11430091A64A00991143A34A5F
:10352000C03A116008BD08B5A049C03909680091CA
:10353000F0220099914300910101009A11430091FA
:103540009C4A00991143994AC03A116008BD10B5D0
:103550000246A523954C63605A236360934B803BDE
:103560001868BD240346A3431846002A06D0012A42
:1035700006D0022A06D0032A08D105E0B02005E0D3
:10358000A42003E0982001E08C2000BF00BF0129A7
:1035900002D10123184301E040084000834B803BE7
:1035A00018600023814C636010BD38B504460222C8
:1035B00001217F4801F04FFE032201217C4801F0E8
:1035C00073FE002201217A4801F098FE02220021B8
:1035D000774801F040FE03220021754801F064FEA7
:1035E00000221146724801F089FE7048C038006818
:1035F000009000980009000100900098204300907E
:103600006C49009808436949C039086000210120CD
:10361000FFF79DFF38BD0EB56449C039896808229F
:103620001143624AC03A91600021009100BF5F4996
:10363000C0398968CA07D20F01920099491C0091CC
:1036400069468988002903D10099491C0029EED1D7
:103650000021029103E000BF0299491C029101225E
:10366000D20202999142F6D35049C0398968C907FC
:10367000C90F002901D0012000E000200EBD0CB5CB
:10368000002001904948C03880681021084347490C
:10369000C039886000BF4548C038806810210840A4
:1036A00000900198401C01900198401C002803D014
:1036B000684600881028EED13C48C0388068102148
:1036C0000840009069460888102801D000200CBDF1
:1036D0000120FCE708B5002801D0012807D13349B3
:1036E000C0390968344A1143304AC03A11602F4941
:1036F000C039496800910099C908C9000091009932
:10370000014300912D4A00991143284AC03A516063
:1037100008BD0146254AC03A5068042302469A4330
:1037200010468A001043254A0243204BC03B5A6092
:10373000704770B504460D46022204211C4801F072
:103740008AFD012204211A4801F0AEFD280121075B
:10375000090F08431549C039086170BDFCB504461E
:10376000089E079D00200190002C04D10F4FC03F00
:1037700038620120FCBD48050127BF053843170505
:1037800038431F0438432F02384337013843099F19
:103790003843064FC03F386200BF00BF00BF00BFC4
:1037A00000BF0248C038006A012709E0000100405C
:1037B00000150040000007A5888007A500000A57F3
:1037C000FF053843FD4F38620020FD4F386004E0AC
:1037D000FB480068401CFA4F3860F9480068FF2831
:1037E000F6D900BFF548006AC00FC0070028F9D01D
:1037F000F248006AC00FC00700900127FF07009839
:10380000B84201D00020B5E70120B3E7F0B589B098
:1038100004460D460027002008900790069005906A
:1038200000260490002C0BD0042C09D0062C07D0C5
:10383000082C05D00A2C03D00C2C01D0102C10D150
:103840000820FFF7B2FEFFF7E6FE0620FFF742FF73
:10385000DC486043DC490860DA486043DB490860C3
:103860001AE0202C14D10920FFF75DFE0220FFF79B
:1038700031FFE10F09194910D24A5143D24A116070
:10388000E10F09194910CF4A5143D04A116003E0B2
:103890000020C04309B0F0BD002C01D100271EE07C
:1038A000042C01D101271AE0062C01D1022716E0D1
:1038B000082C01D1032712E00A2C01D104270EE0C5
:1038C0000C2C01D105270AE0102C01D1072706E0B6
:1038D000202C01D1072702E00020C043DAE7791C41
:1038E000204602F0D5FB0646012D29DD012E06D12A
:1038F000681E0890002007900690059027E0022E91
:1039000007D1681E089001200790002006900590BE
:103910001DE0032E07D1681E0890022007900020AA
:103920000690059013E0042E07D1681E0890012030
:10393000079000200690059009E00020C043A9E709
:103940000420089009200790002006900590089810
:10395000704304900498C8283BD80698C0B20799D1
:10396000C9B2089AD2B2FBB20092019102900598B6
:10397000C2B201210846FFF7F1FE012826D1002C32
:103980000BD0042C09D0062C07D0082C05D00A2C0B
:1039900003D00C2C01D0102C03D10720FFF79AFE86
:1039A00004E0202C02D10320FFF794FE85486843F1
:1039B00085490860834868438449086001220021E2
:1039C0008148006802F018F8002063E70020C04337
:1039D00060E70020C0435DE7014601229207906B3B
:1039E000131202469A4310468A0510431A02906346
:1039F0007047014601229207906B931202469A4348
:103A000010460A0510439A0290637047014601224E
:103A10009207906B531302469A4310464A04104390
:103A20005A0390637047014601229207906B182356
:103A300002469A431046CA0010430122920790633F
:103A40007047014601229207906B400840000246F1
:103A50000A431046012292079063704701460122F3
:103A60009207906BC02302469A4310468A01104386
:103A7000012292079063704738B51C46030003F09B
:103A800032FD08D6052A5277A9C0C1D64B4B403328
:103A90001B69009300290BD1009BDB0ADB0200931A
:103AA00053075B0DE5B22B43009D2B4300930DE0C4
:103AB00001290BD1464D009B2B40009353075B0916
:103AC00025062D0A2B43009D2B4300933B4D40358B
:103AD000009B2B61ABE00023384D40356B612B46DA
:103AE0005B69009302290BD1009BDB0ADB02009388
:103AF00053075B0DE5B22B43009D2B4300930DE074
:103B000003290BD1324D009B2B40009353075B09D7
:103B100025062D0A2B43009D2B430093274D40354E
:103B2000009B6B6183E0254B40339B690093042924
:103B30000BD1009BDB0ADB02009353075B0DE5B260
:103B40002B43009D2B4300930DE005290BD1204D05
:103B5000009B2B40009353075B0925062D0A2B433E
:103B6000009D2B430093154D4035009BAB615EE0FB
:103B7000124B4033DB69009306290BD1009BDB0A13
:103B8000DB02009353075B0DE5B22B43009D2B43F3
:103B900000930DE007290BD10D4D009B2B400093A6
:103BA00053075B0925062D0A2B43009D2B430093E9
:103BB000024D4035009BEB6139E0000040000040C1
:103BC0007C00002040420F0074000020780000209C
:103BD000FFFF00F8F74B1B6A009309290CD1F64D43
:103BE000009B2B40009323061B0A55076D092B43AE
:103BF000009D2B43009300E000BFEE4D009B2B6225
:103C000015E014E0EB4B9B6A009308290BD1EA4DB9
:103C1000009B2B40009323061B0A55076D092B437D
:103C2000009D2B430093E34D009BAB6200BF00BFA0
:103C300038BD012905D18A07126902438B071A6131
:103C400006E0012292071269824301239B071A6151
:103C5000704701208007406970470121890748614A
:103C60007047D4484038C06870478106890ED34AEF
:103C70001143D04A403AD1607047012905D18A07E3
:103C8000926902438B079A6106E0012292079269CA
:103C9000824301239B079A61704701208007C06916
:103CA000704701218907C969014301229207D16147
:103CB0007047C0484068C0B2704710B50246012A3C
:103CC00005D10802BE4C2043BA4B986001E0BC48C5
:103CD000401EB84B986010BD01208007406830221C
:103CE0001040014630200840002800D170473020A5
:103CF0000840102801D10120F8E730200840202892
:103D000001D10220F2E730200840302801D1032001
:103D1000ECE70020EAE738B5A64B1B6A00931F24A6
:103D2000E402009BA34300938B030324A4032340DA
:103D3000140303252D032C402343C4020125ED0267
:103D40002C402343009C234300939A4C009B236206
:103D500038BD08B59748406800900098C007C00F6C
:103D6000002801D0012008BD0020FCE770B5054601
:103D70000C46002D06D0012D33D0022D71D0032D1D
:103D800070D172E0002C0CD10820FFF7B7FB0020A7
:103D9000FFF7A0FC8B488C4908608C490860012023
:103DA00070BD022C0CD10920FFF7A8FB0020FFF703
:103DB00091FC874884490860844908600120EFE746
:103DC000042C0CD10A20FFF799FB0020FFF782FC9E
:103DD00080487D4908607D4908600120E0E70020B7
:103DE000DEE70820FFF79FFB002C12D10820FFF729
:103DF00017FBFFF74DFB0120FFF76CFC0120C00310
:103E000071490860714908600020FFF78CFB0120B0
:103E1000C6E7022C11D10920FFF702FBFFF738FBA0
:103E20000120FFF757FC6003674908606749086095
:103E30000020FFF778FB0120B2E7042C13D10A2001
:103E4000FFF7EEFAFFF724FB0120FFF743FCE00247
:103E50005D4908605D4908600020FFF764FB0120B0
:103E60009EE737E092E000209AE7002C0ED1082070
:103E7000FFF79BFBFFF7CFFB0620FFF72BFC564815
:103E80005149086051490860012089E7022C0ED190
:103E90000920FFF78AFBFFF7BEFB0620FFF71AFC9D
:103EA0004E484949086049490860012078E7042CD8
:103EB0000ED10A20FFF779FBFFF7ADFB0620FFF7D5
:103EC00009FC47484049086040490860012067E70D
:103ED000002065E7002C0CD10820FFF724FB02200E
:103EE000FFF7F8FB3F48384908603849086001206F
:103EF00056E7022C0CD10920FFF715FB0220FFF733
:103F0000E9FB39483049086030490860012047E73B
:103F1000042C0CD10A20FFF706FB0220FFF7DAFB86
:103F20002D482949086029490860012038E7082CF4
:103F30000CD10B20FFF7F7FA0220FFF7CBFB274845
:103F40002149086021490860012029E7102C0CD183
:103F50000C20FFF7E8FA0220FFF7BCFB20481A49C3
:103F600008601A49086001201AE7202C0CD10D20A6
:103F7000FFF7D9FA0220FFF7ADFB1C481249086091
:103F80001249086001200BE7002009E7002007E73D
:103F900030B502460C46002A02D110211023E5E07C
:103FA000012A02D111020B46E0E0022A20D11102BF
:103FB0000B46DBE080000040FFFF00F800002CA370
:103FC0000100140520A107007400002078000020E3
:103FD00090D0030048E8010000127A0000093D007B
:103FE00080841E000048E8010024F40040420F00D5
:103FF000032A03D1012189020B46B7E0042A02D12A
:1040000051020B46B2E0052A03D1012109030B46F8
:10401000ACE0062A03D1012149030B46A6E0072A9A
:1040200003D1012109040B46A0E0082A02D1910323
:104030000B469BE0092A03D1012189040B4695E038
:104040000A2A03D10121C9040B468FE00B2A03D1B0
:10405000012109050B4689E00C2A03D101214905FC
:104060000B4683E00D2A03D1012189050B467DE033
:104070000D2A03D1012189050B4677E00E2A03D1D1
:10408000012149060B4671E00F2A03D1012189065F
:104090000B466BE0102A02D111050B4666E0112A8F
:1040A00002D1D1070B4661E0122A02D11021102360
:1040B0005CE0132A02D12021202357E0142A02D1E8
:1040C0004021402352E0152A03D1FF2101310B4644
:1040D0004CE0162A03D1012149020B4646E0172A7B
:1040E00003D1012189020B4640E0182A03D10121A6
:1040F000C9020B463AE0192A03D1012109030B46F4
:1041000034E01A2A03D1012149030B462EE01B2A71
:1041100003D1012189030B4628E01C2A03D1012188
:10412000C9030B4622E01D2A03D1012109050B46D4
:104130001CE01E2A03D1012189050B4616E01F2A27
:1041400003D10121C9050B4610E0202A02D19105B7
:104150000B460BE0212A02D111070B4606E0222A6A
:1041600002D191070B4601E0002030BD112A15DC79
:1041700001208007806A88430125AD07A862284690
:10418000006B98432863012C24D1A007806A084360
:10419000A862A007006B184328631BE0112A17DDF3
:1041A000222A15DC01208007C06A88430125AD075B
:1041B000E8622846406B98436863012C0AD1A00747
:1041C000C06A0843E862A007406B1843686301E0D7
:1041D0000020CAE70120C8E70146F748814201D123
:1041E00000207047F548814201D10120F9E7F448E9
:1041F000814201D10220F4E70020C043F1E770B50D
:1042000004460D46EC48844218D1C004C06A10210F
:1042100088438906C8620846406B10218843890696
:1042200048630846C06A102108438906C8620846E8
:10423000406B102108438906486336E0DF4884421A
:1042400018D18005C06A202188434906C862084603
:10425000406B20218843490648630846C06A2021F4
:1042600008434906C8620846406B202108434906B6
:1042700048631AE0D248844217D14005C06A402101
:1042800088430906C8620846406B402188430906F6
:1042900048630846C06A402108430906C8620846C8
:1042A000406B402108430906486380202060206855
:1042B0002021084320602946C248006801F0E8FE3A
:1042C0008008401E4008A0612946BE48006801F0F1
:1042D000DFFE8008401E4008E06101206061206828
:1042E00008210843206070BDB34988420CD1C10445
:1042F000C96A10229143C204D162C104496B1022E1
:104300009143C20451631EE0AC4988420CD181053F
:10431000C96A202291438205D1628105496B20221E
:104320009143820551630EE0A54988420BD14105B6
:10433000C96A402291434205D1624105496B40223E
:10434000914342055163704770B504460D46002DF8
:104350001DD09948844206D10A2000F0EBFB0A20C8
:1043600000F0D9FB27E09548844206D10E2000F0EA
:10437000E1FB0E2000F0CFFB1DE0914884421AD1F2
:10438000192000F0D7FB192000F0C5FB13E08A4884
:10439000844203D10A2000F0C5FB0CE08748844228
:1043A00003D10E2000F0BEFB05E08548844202D117
:1043B000192000F0B7FB70BDF8B505462846FFF799
:1043C0000BFF06467001804944186F68452F4CD09A
:1043D00006DC202F72D0222F71D0442F72D15CE0E6
:1043E000472F12D0852F2CD0872F6BD1A168E06882
:1043F000884207D2E1686068405C2861E068401C40
:10440000E06001E0A22028605DE0A168E0688842E9
:1044100007D2E1686068405C2861E068401CE060A9
:104420000EE06169A069884208D220684000401C03
:104430002861286801210843286001E0A220286043
:1044400041E06169A06988420CD26069012806D9FF
:104450006069401EA169814201D200BF04E0A02032
:10446000286001E0A22028602DE06169A0698842EF
:1044700012D22869A26921698854A069401CA061F0
:104480006069012806D96069401EA169814201D294
:1044900000BF01E0A020286015E06169A0698842A2
:1044A00008D22869A26921698854A069401CA061CA
:1044B000A220286007E001E001E003E000BFA8209F
:1044C000286004E000BF00BFFF206860F8BDFF2047
:1044D000686000212846FFF737FF01203B498855D7
:1044E00000BFF3E7F8B505462846FFF775FE064618
:1044F0007001354944186F68222F1FD006DC152F34
:104500000BD0172F1BD0202F2AD116E0452F05D016
:10451000462F15D0472F23D113E000BF21696069D2
:10452000884209D2E068002806D028696269E168FB
:1045300088546069401C606112E000BF14E000BF55
:1045400000BF6168A068884209D22068002806D0B0
:10455000A1682068405C2861A068401CA06000BF82
:1045600000BFFF206860F8BDFF206860002128467A
:10457000FFF7EAFE01201649885500BFF3E710B5A2
:1045800001460020FF234B6005E00B681024234008
:10459000002B00D000E0F8E700BF4A68472A1BD094
:1045A00004DC442A1AD0452A1BD118E0852A11D0F0
:1045B000872A16D1022023E000480040004900402D
:1045C000004A004078000020900100208000002078
:1045D00083000020012013E0042011E000BF03202D
:1045E0000EE008231340002B01D0052007E0202314
:1045F0001340002B01D0062001E00020C04300BF83
:1046000000BF10BDF7B582B004460D460020E8603B
:10461000A86100BF6068042108400028FAD104980E
:10462000002876D1E860A861A968E868884251D27C
:10463000286840002061206801210843206020464E
:10464000FFF79DFF0646022E0DD020680221084389
:1046500020602046FFF793FFFF206060A8202060C5
:10466000002005B0F0BD0120019030E0A968E868A5
:10467000884219D2E9686868405C2061E868401C9B
:10468000E8602046FFF77BFF0646042E1FD0206817
:104690000221084320602046FFF771FFFF20606081
:1046A000A82020600020DCE76969A86988420CD353
:1046B00020680221084320602046FFF760FFFF20AA
:1046C0006060A82020600120CBE7002001900198C5
:1046D0000028CBD16969A86988427DD2286840004A
:1046E000401C206120680121084320602046FFF71C
:1046F00046FF0646012E0DD02068022108432060A7
:104700002046FFF73CFFFF206060A82020600020CB
:10471000A7E751E0012001903EE06869012817D920
:104720006869401EA969814212D22046FFF727FF1F
:104730000646032E23D0206802210843206020462D
:10474000FFF71DFFFF206060A8202060002088E7A1
:104750002068A021084020602046FFF710FF064691
:10476000032E0CD020680221084320602046FFF76A
:1047700006FFFF206060A8202060002071E720690C
:10478000AA6929698854A869401CA8616969A8694F
:10479000884201D10020019001980028BDD12068F5
:1047A0000221084320602046FFF7E9FEFF206060F9
:1047B000A8202060012054E7049801282ED120462B
:1047C000FFF70AFD07460020DE49C8557901DE4A99
:1047D00088181C22294600E020E0FBF741FD00205C
:1047E0007901D94A8918C86101212046FFF7ACFD3B
:1047F000A968E868884203D228684000206107E081
:104800006969A869884203D228684000401C206179
:104810002068012108432060012022E7002020E7D2
:1048200010B501460020FF234B6005E00B68102403
:104830002340002B00D000E0F8E700BF4A68472A79
:1048400014D006DC152A09D0172A0AD0452A0FD120
:104850000AE0952A03D0972A0AD103E000BF01207D
:1048600015E000BF022012E0032010E004200EE05B
:1048700008231340002B01D0052007E0202313401C
:10488000002B01D0062001E00020C04300BF00BF84
:1048900010BDF7B505460C460020A0606061029887
:1048A000002839D12FE02846FFF7BAFF07463B0022
:1048B00002F019FE0726051506162725270000BF5A
:1048C00021696069884209D2E068002806D0286919
:1048D0006269E16888546069401C606112E000BF51
:1048E0006168A068884209D22068002806D0A168C3
:1048F0002068405C2861A068401CA06002E003E0E2
:1049000000E005E000BFCEE7FF2068600120FEBDAB
:10491000FF2068600020FAE70298012818D1284695
:10492000FFF75AFC06460020884988557101864ADF
:10493000881818222146FBF793FC01207101824A56
:104940008918C86101212846FFF7FEFC0120DEE737
:104950000020DCE770B505460C46164600202061B5
:104960006061E060A061324621462846FFF74AFEBA
:1049700070BD70B505460C46164600206060A0600C
:10498000E060A061324621462846FFF73BFE70BD3D
:1049900070B505460C461646002020606060A06099
:1049A0006061324621462846FFF773FF70BD10B59F
:1049B0004B00012A01D1012400E000242343DBB293
:1049C000836010BD10B54B00012A01D1012400E025
:1049D00000242343DBB2C36010BD70B505462846F2
:1049E000FFF7FAFB04465748065D00205549085575
:1049F000304670BD70B505462846FFF7EDFB04460E
:104A00005248065D002051490855304670BD70B5CA
:104A10000446206A80088000012902D1012528432C
:104A200001E040084000012A02D10225284303E0AA
:104A300002260546B543284620621D022D0A6562FE
:104A400070BD41680122D20711434160704702687E
:104A500003231B029A43026002680B401B021A43A5
:104A60000260704770B50446A56A2807000F012B45
:104A700008D1002901D10225284301290BD10125A4
:104A8000284308E0002903D102260546B5432846FD
:104A9000012900D18843012A08D1002901D1082524
:104AA0002843012910D1042528430DE0002A0BD109
:104AB000002903D108260546B5432846012903D11C
:104AC00004260546B5432846A06270BD30B50346AE
:104AD0000A46986A03252D0228400446002A0AD176
:104AE00001204002204001256D02A84201D1012190
:104AF0000BE0002109E0012A07D110022040150235
:104B0000A84201D1012100E00021002901D00120AB
:104B100030BD0020FCE7C206D20E012191400C4AB4
:104B200011607047C206D20E01219140084A8032BE
:104B300011607047C206D20E01219140054A1160F2
:104B400070470000800000209001002083000020BA
:104B500000E100E080E200E030B504460D462B00A5
:104B600002F0C1FC060406080A0C0E10012109E03F
:104B7000022107E0042105E0082103E0102101E003
:104B8000202100BF00BF012A03D160680843606094
:104B900004E060683F238B4318406060002030BD14
:104BA0000146FE4A914207D1FD4A1278002A01D0FF
:104BB000FC480EE000200CE0FB4A914208D1F84A84
:104BC0001278002A02D0F748183002E0002000E0F6
:104BD00000207047F0B506460C4615461F46304685
:104BE000FFF7DEFF0346002B10D0002018749880DA
:104BF0005880188058811881D880002C03D15861C2
:104C00009881D88102E05C619D81DF81F0BDFEB5B5
:104C100004460D46E54806682F013946304601F046
:104C200037FA029002987843301A009000990802EF
:104C3000394601F02DFA0190029880B22062019865
:104C4000C0B26062FEBD70B504460E46D3488442D1
:104C500003D101211920FFF79BF9D348844203D1E6
:104C600001211A20FFF794F901E02068C5B26069BC
:104C7000C007C00F0028F8D100BF6069202108409C
:104C80000028FAD000206060E06020616069C5B251
:104C9000A068C5B2C64800684008C44908602046FC
:104CA0003168FFF7B4FFE0684021084005463079DD
:104CB000002806D0012806D0022807D0032808D1F2
:104CC00008E000BF09E00120054306E0022005439B
:104CD00003E000BF0320054300BF00BF7079002838
:104CE00018D0082005437079012806D0022806D084
:104CF000032807D004280BD107E000BF09E01020EB
:104D0000054306E02020054303E03020054300E092
:104D100000BF00BFB079002805D0012802D10420CF
:104D2000054301E000BF00BF00BF6806400EE06021
:104D3000F389B2892046B168FFF74CFFB0680028BC
:104D400011D0012200212046FFF706FF934884423C
:104D500003D1132000F068FA05E09348844202D1A1
:104D6000142000F061FA002070BD10B504468B4895
:104D7000844203D100211920FFF70AF98A488442AE
:104D800003D100211A20FFF703F9002010BD0146CE
:104D90004B20400208600320087100204871887190
:104DA0007047024611600020704701460868C0B293
:104DB0007047FFB50646019D029C039801281BD150
:104DC000002316E00027FF4303E0002F00D105E099
:104DD0007F1E7069202108400028F6D000BF002FF8
:104DE00000D108E029786D1C3046FFF7DAFF641E19
:104DF0005B1C002CE6D111E000230CE0706920213F
:104E00000840002800D108E029786D1C3046FFF7E3
:104E1000C8FF641E5B1C002CF0D100BF184604B014
:104E2000F0BDFFB505461646019C334603980128A0
:104E30001BD1002216E00027FF4303E0002F00D122
:104E400005E07F1E6869C007C00F0028F6D000BFCC
:104E5000002F00D108E02846FFF7A7FF2070641C50
:104E60005B1E521C002BE6D111E000220CE06869A9
:104E7000C007C00F002800D108E02846FFF795FFC3
:104E80002070641C521C5B1E002BF0D100BF10462A
:104E900004B0F0BD0146C86840221043C86000203D
:104EA0007047014648694006400E704701468868D1
:104EB000C006C00E704701464869402210400028D5
:104EC00001D0002070470120FCE730B503460C46B6
:104ED000002C06D0012C06D0022C06D0032C08D1C1
:104EE00005E0102106E0082104E0042102E00C2185
:104EF00000E000BF00BF012A03D118690843186110
:104F000004E018691C258D4328401861002030BD3D
:104F10000246082900DA11630020704710B50446E4
:104F20002046FFF73DFE0346002B07D000201874F3
:104F300098805880188058811881D88010BD30B56D
:104F400004460D462046FFF72BFE0346002B3ED0BD
:104F5000D889002833DD5889002806D160692021CE
:104F60000840002801D0256038E000BF5889D98961
:104F70008842FBD072B698891989401859690D5436
:104F80001889401C80B21881D989884201DB002031
:104F900018815889401C588160680BE0004000402F
:104FA0008C000020F001002000410040880000201B
:104FB0007400002002210843606062B60EE000BF6A
:104FC0006069602108406028FAD1256006E000BFD2
:104FD0006069602108406028FAD1256030BDF7B5CE
:104FE0000D4614462F46002605E039787F1C0098B0
:104FF000FFF7A5FF761CA642F7DB2046FEBD014663
:105000008888002801D1401E704772B60B88486915
:10501000C25C0888401C80B208808B89984201DB02
:10502000002008808888401E888062B61046EBE722
:1050300070B504462046FFF7B3FD0546002D07D0A6
:1050400000BF2846FFF7DBFF061EFADB304670BDC7
:1050500000BF6069C007C00F0028FAD02068F6E7DB
:10506000F7B50D4616462F46002405E00098FFF7D9
:10507000DFFF38707F1C641CB442F7DB2046FEBDA6
:10508000F0B507460C46002600BF2578641C002DAD
:1050900000D105E0E9B23846FFF751FF761CF4E78E
:1050A00000BF3046F0BD0FB438B5054606A80090E5
:1050B00080216148009B059A00F06AFF0446002C9D
:1050C00004DD22465C492846FFF789FF0020009056
:1050D000204638BC08BC04B0184710B50346184633
:1050E000FFF75EFD0446002C01D0A08810BD586972
:1050F000C007C00FFAE730B504460025ED4320464F
:10510000FFF7EBFF002803D02046FFF791FF05468D
:10511000284630BDF7B50D461646002408E0009835
:10512000FFF786FF07460D2F00D104E02F55641CC2
:10513000701EA042F3DC00BF00222046641C2A54EB
:105140002046FEBDF0B504462046FFF729FD034684
:1051500000BFA068C606F60E012E00D162E0022E46
:1051600019D0042E02D0062E5BD136E0276898882D
:10517000998988420EDA9888401C98805A88596923
:105180008F545888401C80B258809989884201DB2E
:105190000020588045E05889002804D16068022129
:1051A0000843606018E0D889002815DD9889D988FF
:1051B000401859690F5CD888401C80B2D880D989C2
:1051C000884201DB0020D88027605889401E80B2C9
:1051D0005881002800DC24E023E0606945066D0E5C
:1051E00010202840002803D0187C10210843187490
:1051F00008202840002803D0187C08210843187490
:1052000004202840002803D0187C04210843187487
:1052100002202840002803D0187C0221084318747B
:1052200000BF96E700BFF0BDC206D20E012191403B
:10523000024A1160704700002002002000E100E0F7
:10524000A548006BFF2101310840884201D10120AF
:1052500070470020FCE778B503460C461646032A43
:1052600000D10122FFF7ECFF6500186800900320D1
:10527000A8400099814300911046A8400099084336
:10528000009000981860586800900120A040009994
:1052900081430091032E04D10120A04000990843CE
:1052A00000900098586078BD38B503460C46154606
:1052B000FFF7C6FF082C0FD2A200986800900F20BD
:1052C00090400099814300912846904000990843FE
:1052D00000900098986010E0204608388200D86856
:1052E00000900F2090400099814300912846904003
:1052F0000099084300900098D86038BD38B503463F
:105300000C46FFF79DFF6500186900900320A84038
:105310000099814300911046A840009908430090ED
:105320000098186138BD18B5436A009301238B407B
:10533000009C9C43009413468B40009C23430093A5
:10534000009B436218BD18B503460C46FFF778FF73
:10535000986A00900120A040009981430091104676
:10536000A0400099084300900098986218BD08B5C5
:10537000594AC03A1269009201228240009B93432D
:1053800000930A468240009B1A430092524BC03B56
:10539000009A1A6108BD08B54F4AC03A12690092D6
:1053A00001228240009B934300930A468240009B67
:1053B0001A430092484BC03B009A1A6108BD08B5D9
:1053C000454AC03A5268009283059B0D009A9A4361
:1053D00000920A468240009B1A4300923E4BC03B1B
:1053E000009A5A6008BD08B53B4AC03A126900925B
:1053F00083059B0D009A9A4300920A468240009BC7
:105400001A430092344BC03B009A1A6108BD012830
:1054100004D13249304AC03A116003E000212E4ADB
:10542000C03A116070472C48C03840688005800D34
:1054300070472948C03800698005800D704770B5F5
:1054400003460C461546FFF7FBFE66001A6C032068
:10545000B040114681430A46012D02D10120B040DF
:1054600002431A6470BD78B504460D461646FFF730
:10547000E7FE6A00E06A00900320904000998143B3
:105480000091304690400099084300900098E062F7
:105490006A00606B00900320904000998143009166
:1054A000184690400099084300900098606378BDCA
:1054B0000146086B704700B502460B46FFF7C0FE79
:1054C000136300BDC16170470162704701464869BE
:1054D0007047816170470000C01F00400207000054
:1054E0005A21F84A5160A5215160002802D10021BB
:1054F00051600EE00107F34A516011468968921429
:105500001143F04A91601146896840229143ED4A67
:105510009160704710B5034672B6EB48EB4C2060C3
:10552000EB48E84CC03C2060EA486060002010BDB9
:1055300001460020704706E0E2488069C007C00FBE
:10554000002800D100E0F7E700BF70476620DD4982
:1055500048609920486000204863DF48D9494031BD
:105560000861DE4848610020D649486048607047BD
:105570006621D44A516099215160D9494868D94976
:10558000884206D10F215163D449CE4A403251613D
:1055900006E0FF21CB4A5163D049CA4A40325161EB
:1055A000D149C84A403211610021C64A5160516058
:1055B000704700B5FFF7CAFF8120C2494860282024
:1055C0004860CA4808630020486048605A20486024
:1055D000A52048600846806810210843B9498860C2
:1055E0000846806880210843B6498860084680687C
:1055F00002210843B34988600846806808210843AF
:10560000B04988600846806801210843AD49886038
:10561000FFF791FF0020AB498860486000BD02465B
:10562000012A03D0022A01D0032A11D1012906D16F
:10563000A44880680B031843A24B986006E0A14879
:10564000806801231B0398439E4B9860012070479C
:10565000042A11D1012906D19A4880680B06184303
:10566000984B986006E09748806801231B06984392
:10567000944B98600120EAE7052A11D1012906D14F
:10568000904880684B0618438E4B986006E08D4822
:10569000806801235B0698438A4B98600120D6E717
:1056A000002A01D10120D2E70020D0E730B504461E
:1056B0000D46FFF74BFFA8088249C860812048606B
:1056C00028204860894808630020486048605A20C4
:1056D0004860A52048600846806810210843794941
:1056E0008860084680680221084376498860E0B2F5
:1056F0000121FFF794FF002801D1012030BD71483E
:105700008068082108436F49886008468068012145
:1057100008436C498860FFF70EFFE0B20021FFF7F5
:105720007EFF002801D10120E8E70020654988605C
:10573000486000BFE2E730B504460D46FFF706FFBC
:10574000A8086049C86081204860282048606748F0
:1057500008630020486048605A204860A5204860DF
:1057600008468068102108435649886008468068CA
:105770000221084353498860084680682021084375
:1057800050498860E0B20121FFF749FF002801D1AC
:10579000012030BD4B488068082108434949886092
:1057A000084680680121084346498860FFF7C3FE28
:1057B000E0B20021FFF733FF002801D10120E8E724
:1057C000002040498860486000BFE2E730B50446E9
:1057D0000D46FFF7BBFEA8083A49C8608120486023
:1057E00028204860414808630020486048605A20EB
:1057F0004860A52048600846806810210843314968
:10580000886008468068022108432E49886008465F
:105810008068402108432B498860E0B20121FFF7EE
:10582000FEFE002801D1012030BD264880680821F5
:1058300008432449886008468068012108432149BB
:105840008860FFF778FEE0B20021FFF7E8FE00284D
:1058500001D10120E8E700201A498860486000BFB4
:10586000E2E7FFB581B004460D461646A807800F53
:10587000002803D1B007800F002802D0012005B016
:10588000F0BD04980090FFF761FE81200D4948604B
:1058900028204860154808630020486048605A2066
:1058A0004860A520486008468068102108430549E3
:1058B0008860E0B20121FFF7B2FE002818D1012074
:1058C000DDE7000000010040A095695A001A004081
:1058D000888807A502000A570000B0AA0000B0554A
:1058E00000F000400BA0314DFFFFB0AA0003587834
:1058F000A8087A49C86008468068042108437749A7
:10590000886000271DE000980068744908610098CD
:10591000001D009008468068082108436F49886090
:1059200008468068012108436C498860FFF703FE40
:105930006A48806840084000684988608020886123
:105940003F1DB742DFD3E0B20021FFF768FE002819
:1059500001D1012093E7002060498860486000BFC2
:105960008DE7F7B581B003460C469807800F0028F5
:1059700003D1A007800F002802D0012004B0F0BDA1
:10598000181900908120554E70602820706054488E
:1059900030630020706070605A207060A5207060D5
:1059A000039D1A46002107E001CD40CAB04202D053
:1059B0005818009002E0091DA142F5D300BF039DD5
:1059C0001A46002107E001CD40CAB04202D0581863
:1059D000009002E0091DA142F5D300BF00203F4E18
:1059E000B06081207060282070603D4830630020E6
:1059F000706070600098C1E7F8B506460C46154621
:105A0000002781203549486028204860012D15D1A4
:105A100000BF10E0611C304600F03AFB31490860DD
:105A2000084600683049884203D90027601C84B2C8
:105A300001E0012701E0002FECD000BF20022B493C
:105A400008432649086300204860F8BD2348006BDE
:105A5000072109020840000A704710B5FFF7F6FF5A
:105A60002349088008460188491C2248006800F044
:105A70000FFB214908600846006810BD17484030F8
:105A8000C06870471548C06B032212021040010A1B
:105A9000002901D100207047012901D10120FAE736
:105AA000022901D10220F6E70020C043F3E70B49A9
:105AB00040314860486070470849403108600860DC
:105AC00070470648C16B800408400122920690424C
:105AD00001D1012070470020FCE7000000010040D8
